:020000040800F2
:10000000403800202D2D0008D12C0008DD2C0008E0
:10001000E92C0008F52C0008012D000806BAFEAFF7
:10002000000000000000000000000000B12A0008ED
:100030000D2D000800000000492B00089115000854
:10004000192D0008A12D0008B32D0008C52D0008AA
:10005000D72D0008E92D0008FB2D00080D2E000803
:100060001F2E0008312E0008432E0008552E0008D0
:10007000672E0008792E00088B2E00089D2E0008A0
:10008000AF2E0008C12E0008D32E0008E52E000870
:10009000F72E0008092F00081B2F00082D2F00083D
:1000A0003F2F0008512F0008632F0008752F00080C
:1000B000872F0008992F0008AB2F0008BD2F0008DC
:1000C000CF2F0008E12F0008F32F000805300008AB
:1000D00017300008293000083B3000084D30000878
:1000E0005F30000871300008833000089530000848
:1000F000A7300008B9300008CB300008DD30000818
:10010000EF300008013100081331000825310008E4
:1001100037310008493100085B3100086D310008B3
:100120007F31000891310008A3310008B531000883
:10013000C7310008D9310008EB310008FD31000853
:100140000F3200082132000833320008453200081F
:1001500057320008693200087B3200088D320008EF
:100160009F320008B1320008C3320008D5320008BF
:10017000E7320008F93200080B3300081D3300088D
:100180002F3300084133000853330008653300085B
:1001900077330008893300089B330008AD3300082B
:1001A00000000000BF33000865130008D1330008C9
:1001B000DD110008704704387047704710B51021F2
:1001C00004460AF00DFE204610BDA0F10400F5E73C
:1001D00010B500228260044AC16002F10804203296
:1001E0000460426010BD00BFC0B000087047704797
:1001F00070477047704700F098B810B54FF484719D
:1002000004460AF0EDFD204610BD000010B504467E
:1002100000F0B4F8014B2360204610BDF0B0000898
:1002200000220260704770477047704710B54FF466
:10023000A87104460AF0D4FD204610BD10B504464E
:10024000D0F84C01FFF7EFFF2046BDE8104007F063
:1002500045BF10B50446D0F8340158B10368DB68D7
:10026000984738B1D4F8340103689B689847002355
:10027000C4F8343110BD000010B5044600F04EF94A
:10028000014B2360204610BD24B1000870B51E4606
:100290000368BDF910505B6B0446984723683146EC
:1002A00020469A6B9047236829462046DB6BBDE8C1
:1002B0007040184781807047C180704770B50368EF
:1002C0000446DB6A154698472368294620461B6B7F
:1002D000BDE8704018470181704741817047704701
:1002E0007047704770477047C38810B4D21A83882C
:1002F0005DF8044BC91A036812B25B6D09B2184766
:100300004FF6FF7383814FF0FF3303621368C361BD
:10031000106070477047704790F825201AB190F828
:10032000242002B1186070477047704710B54FF431
:10033000847104460AF054FD204610BD00228280DC
:10034000C280028142818281C28102824282C0E9EE
:100350000522C261826280F82C20074A02600121D6
:100360004FF6FF7280F8251080F82410C2850286AF
:1003700080F83220704700BF04C300082DE9F74F12
:100380000446274608F040FE002502AE434BE563D5
:1003900047F8403B4FF6FF7326F8043D404AA4F867
:1003A00066304FF0010B84F868302264314604F166
:1003B0006C0AA4F84450A4F84650A4F84850A4F895
:1003C0004A50A4F84C50A4F84E50A4F85050A4F849
:1003D0005250C4E91555E56584F86450384684F8F0
:1003E00065B007F092FC04F1A0095046FFF7A6FFA4
:1003F00004F1D4084846FFF7A1FF4046FFF79EFFEF
:100400002A4629463846FFF759FF02233146384627
:10041000ADF8043007F079FC50463B2240F25621FB
:10042000FFF74CFF324669465046ADF80050ADF834
:1004300004B007F0A5FB4846892240F25621FFF799
:100440003DFF324669464846ADF80050ADF804B06D
:1004500007F096FB4046DE2240F25621FFF72EFFC2
:100460003246ADF800506946251D4046ADF804B04F
:1004700007F086FB3946284606F03CFD51462846E3
:1004800006F038FD4946284606F034FD2846414628
:1004900006F030FD204603B0BDE8F08F60B10008E3
:1004A000ACC30008704770474160704770477047A1
:1004B000012303727047704710B4C468416862102A
:1004C0000346E40701EB02009B6848BF8A585DF8C9
:1004D000044B48BFD358184743682BB183682BB9E6
:1004E000C06800F00100704718467047012070474F
:1004F00010B50C2104460AF073FC204610BD10B55F
:100500004FF4A87104460AF06BFC204610BD10B5EC
:10051000102104460AF064FC204610BD70B5044664
:1005200016460D4607F036FF0B4AC4F848611460C2
:100530000A4A226000230A4AC4F83031C4F8343130
:10054000C4F83821C4F83C31C4F84031C4F844310F
:10055000C4F84C51204670BD7C300020ACB100087E
:1005600094B10008064BC0F840310023C0F8443174
:1005700000F59C73C0F83C01C0F83431704700BFEF
:10058000C50600082DE9F04707469068DDF820A071
:10059000994603681B6A884614469847B0F5847FDD
:1005A00005D2424B424AC221424800F059FA6068E3
:1005B00003681B6A98470F2803D83F4B3C4AC32166
:1005C000F2E7E06803681B6A98470B2803D83B4BA7
:1005D000374AC421E8E707F0BDFE07F0C1FED9F8AD
:1005E000000010B10368DB689847D9F8000010B12B
:1005F00003681B689847386810B103685B699847BF
:10060000D8F8000010B103685B689847386810B1EB
:1006100003681B689847D8F8000010B103689B680E
:100620009847E068036800215B6A9847054620B157
:10063000002343600372224B0360A068036800211B
:100640005B6A9847064608B1FFF7E0FD60680368FB
:1006500000215B6A9847044610B13146FFF7B8FDA8
:10066000C9F80050C8F800403E60ECB1231DCAF83C
:100670000030C4F808A03368F4633046DB6898475C
:10068000236820461B6898472946304608F03AFE02
:100690002B6828461B69984707F05CFE03689B6A35
:1006A00098472046BDE8F0872346E0E700B20008FF
:1006B00007B400088EB20008C1B2000864B3000895
:1006C000E8B1000807B5D0F84C310093D0F84821C4
:1006D000044B00F598710448FFF754FF03B05DF830
:1006E00004FB00BF78300020743000207047000009
:1006F00030B5144D2C78BFF35B8F14F0010489B032
:100700001DD1284600F093F9C8B13F2306930E4B44
:1007100005930E4B0E490794CDE9034304230122B0
:10072000CDE9004302940A230A4808F00DFE28464A
:1007300000F07EF9084A094906480AF04BFB0548D3
:1007400009B030BDE808002094CB000810CD0008A7
:10075000FCCC0008F408002080090020ED06000809
:1007600030B5144D2C78BFF35B8F14F0010489B0C1
:100770001DD1284600F05BF9C8B13F2306930E4B0C
:1007800005930E4B0E490794CDE903430423012240
:10079000CDE90043029414230A4808F0D5FD284609
:1007A00000F046F9084A094906480AF013FB0548D3
:1007B00009B030BDEC0800200CCD0008B0CC00081A
:1007C00038CD00081409002080090020ED0600083B
:1007D00030B5144D2C78BFF35B8F14F0010489B051
:1007E0001DD1284600F023F9C8B13F2306930E4BD4
:1007F00005930E4B0E490794CDE9034304230122D0
:10080000CDE90043029428230A4808F09DFD2846BC
:1008100000F00EF9084A094906480AF0DBFA0548D3
:1008200009B030BDF0080020F8CC000898CB0008D3
:1008300028CD00083409002080090020ED060008BA
:1008400010B5202104460AF0CBFA204610BD7047AF
:10085000012906D003D3022905D000207047FFF7F5
:100860007FBFFFF7B5BFFFF743BF10B504210446B4
:100870000AF0B6FA204610BD0048704720B50008BF
:10088000032070470048704748CD0008012070479A
:10089000004870475409002010B5FFF761FF044C71
:1008A0002060FFF795FF6060FFF722FFA06010BD9A
:1008B0005409002038B50A4B18800A4B00221A60F0
:1008C000FFF7E0FF0546FFF7E3FF0446FFF7DEFF13
:1008D000054B1D60054B1C60054B188038BD00BFE3
:1008E000700900207409002080300020883000202A
:1008F00084300020014B00221A60704774090020E8
:1009000008B5054B01461B6800B10121184606F0E9
:10091000F7FF012008BD00BF20300020032208B5EA
:100920000021012001F0BBFA074A106020B100232A
:100930001A46194601F0D4FA01210022084601F0B6
:10094000AEFA024B186008BD780900207C0900202F
:10095000034800234FF0FF321946006801F085BBC1
:1009600078090020034800231A461946006801F060
:10097000B7BA00BF78090020034800231A46194679
:10098000006801F072BB00BF7809002007B5094874
:1009900002AA002342F8043D1946006801F020FB3A
:1009A000019B1BB1044B4FF080521A6003B05DF8FD
:1009B00004FB00BF7809002004ED00E007B5094BF7
:1009C000186860B102AA002342F8043D064901F00C
:1009D00007FB019B1BB1054B4FF080521A6003B01F
:1009E0005DF804FB7C0900200800002004ED00E015
:1009F00070B5084D084C00231A462946206801F0BE
:100A000034FB2946206800234FF0FF32BDE87040D8
:100A100001F02BBB080000207C090020FEE7FEE768
:100A20000149002001F024BE010900087047704709
:100A30007047FEE7084910F0030318BFC3F1040331
:100A40000A6818BFC0181318044883423ABF1046FA
:100A50000B604FF0FF3070470C0000204034002046
:100A6000FEE70000024B18680368DB68184700BF08
:100A7000203000201FB500F099FD01F045F800235B
:100A80000322CDE90233019300920449044840F265
:100A9000B63201F0A7FB01F08BFCFEE75CB5000865
:100AA000650A0008704738B5044602F037FE05466F
:100AB00002F03AFE81B2A8B203F08CF908B9012322
:100AC000237138BD10B5082104460AF089F9204683
:100AD00010BD7FB504790E4615465CB101A803F040
:100AE000A5F99DF8043043B1BDF806303360BDF878
:100AF0000A302B60204604B070BD1C46FAE703683C
:100B00001B6C184703685B6A184770477047000002
:100B1000034A044B13601A6842F400721A6070476B
:100B20008409002000B00240034B1B78002B40F2E8
:100B3000EF1018BF00207047C40900202DE9F843CA
:100B4000414BB1F80C801B68CF8998680E7E036812
:100B50001B6A0D46984710282A7E6B6971D103F0F5
:100B60001F041F21C4EB042494FBF1F444EA026245
:100B7000C3F3C424C4EB0424C3F3451394FBF1F47E
:100B800042EA0444C3EB03233F2293FBF2F344EA1B
:100B90000322DFF8C0C02D4C4FF0806ECCF888E007
:100BA000022384F8393023684FF00009C3F800901D
:100BB00023683F219960C3F81090C3F81890C3F8D8
:100BC0001C90C3F82490C3F83490A968D9602049D8
:100BD000C3F8109041EA066122F07F4207EB084714
:100BE000D9611A625F64AA685A616A8A1028A2EB06
:100BF00008029A610CBF022101214FF07F4292FA54
:100C0000A2F2B2FA82F2D2B296400E435E625A6902
:100C1000DA639A691A645A6A5A63CCF808E01A6867
:100C200022F4403242F400321A602268136843F41E
:100C30000C5313602268136843F001031360BDE88E
:100C4000F88343EA0262A4E72030002084090020F0
:100C50000900010000E100E010B540F6A8210446BB
:100C60000AF0BEF8204610BD2DE9F3470E68042EA9
:100C700080460C4600F09F80202E00F09C80A6F15C
:100C8000400257425741802E00F09780A6F58073AE
:100C90005E425E415B4B1B68986803681B6A98471D
:100CA0002368402B824600F09F8000F28880042B4E
:100CB00000F09380202B00F09780BAF1100F14BF42
:100CC0004FF001094FF002090025E389A8F8A43A82
:100CD000DFF838814C4B4FF08062C3F888204046E3
:100CE00003F087FDA289638AC8F8045045469B1A21
:100CF000EB60C5F82C90238AA289BAF1100FA3EB00
:100D0000020314BF4FF001084FF00208AB622846FF
:100D1000C5F8088003F03EFD0FB9002E34D0237EC5
:100D2000FF2B1FBF02232B63237E6B6304BF0023B3
:100D30002B6306B3237E6269BAF1100F4FEA036199
:100D400055D102F01F031F20C3EB032393FBF0F3E5
:100D50000B43C2F3C421C1EB0121C2F3451291FB45
:100D6000F0F143EA0143C2EB02223F2192FBF1F290
:100D700043EA02236B63638AA28924489B1AC5E96C
:100D80000638002103F0A6FD0121204803F0A2FD52
:100D90001D4B4FF080629A60E289A38907B94EB378
:100DA000CDE90032A368616818481A4603F05EFD79
:100DB00002B0BDE8F087012768E701266AE7802BCB
:100DC00006D0B3F5807F7FF478AF4FF0090901E0DA
:100DD0004FF00A094FF4003577E7102814BF4FF0A1
:100DE00001094FF00209F5E74FF00009F2E70A4365
:100DF0006A63C0E700920548D4E9011203F007FDD9
:100E0000D6E700BF2030002000E100E08409002088
:100E10002DE9F041374B1B680646986803680C467D
:100E20001B6A8AB09847E389A6F8A43A2368102879
:100E30000CBF4FF002084FF00108082B07460ED1F7
:100E40000FCC03AD0FC594E80700336885E80700B1
:100E50005B6C03A9304698470AB0BDE8F081264D87
:100E6000264B4FF08062C3F88820284603F0C1FC6F
:100E70004FF44033A289C5E90138638AC5F82C8054
:100E80009B1AEB600023AB62102F6369217E2DD18A
:100E900003F01F02C2EB02221F2092FBF0F5C3F306
:100EA000C42245EA0165C2EB0222C3F3451392FB5B
:100EB000F0F245EA0245C3EB03233F2293FBF2F332
:100EC00045EA032501210C4803F004FD0B4B0A48B9
:100ED0004FF080629A6003F05DFCE2890092A38982
:100EE000A2680548294603F092FCB5E743EA01658C
:100EF000E8E700BF203000208409002000E100E086
:100F000070B5044626460C3000250F4B60602572F4
:100F1000657246F8203B6022314606F01BFE04F560
:100F20002A6275611C36B242FBD194F8A72AC4F834
:100F3000A05A65F30002A4F8A45A84F8A65A84F8CB
:100F4000A72A204670BD00BF84B50008012380F8A1
:100F5000641080F865307047406803681B68184764
:100F600000207047436B0BB10846184770474FF697
:100F7000FF707047014B1868704700BFC809002018
:100F8000034B702283F85A2383F85C23704700BF19
:100F900000E100E0044B4FF08062C3F888204FF07E
:100FA0008052C3F88820704700E100E0034B4FF007
:100FB00080629A604FF080529A60704700E100E0D2
:100FC0007047000008B531B90A4B0B4A0B484FF483
:100FD0004371FFF745FDC0E90E1200320849036472
:100FE00018BF01220A700033064A18BF012313708C
:100FF00008BD00BFE9B5000850B7000821B60008D9
:101000001E3000201F30002008B500F043FC0A4BC2
:101010001B680222C3F810240122C3F81024D3F85D
:10102000082442F00102C3F80824D3F8082442F04F
:101030000202C3F8082408BD90310020024B0022B0
:101040001A7006F0A7B800BF1000002010B50446C3
:1010500006F0ACF894F8473013B1024B01221A7035
:1010600010BD00BF1000002010B5044606F02EFC95
:1010700023682046D3F88430BDE81040184710B5E7
:101080006821044609F0ACFE204610BD30B590F84A
:10109000644090F83010104B8C421A780DD05AB939
:1010A0000E4A0F490F4814880F4D0C80018811809B
:1010B0002980048001221A7030BD002AFCD0094822
:1010C000074A01881180054A074D14882C80118039
:1010D00004800022EFE700BF183000201430002009
:1010E0001A300020163000201C3000200D4B1B78D9
:1010F000B3B10D4B0D481B68D3F8042422F008024D
:10110000C3F804240A4A9162426A42F00102426230
:10111000084A1160D3F8042442F00802C3F80424FA
:10112000704700BFD00900209031002000680140C6
:1011300084680140C8090020F8B51C4C9DF818507F
:1011400023701B4C21601B4C2280541EA6B21F2E04
:1011500009D80124B44014F0803F174F174E09D12D
:1011600014F00B0F17D1164B164A17484FF439716C
:10117000FFF776FC3F883488D2087C436243816362
:101180007BB11144C16375B1114401640F4A1370FE
:101190000F4B1D70F8BD3C8862430732D210348873
:1011A000ECE7C363EFE70564F0E700BFD009002078
:1011B000C8090020D2090020143000201630002079
:1011C000CCB50008FCB6000821B600081E3000208F
:1011D0001F30002003689B691847000070B5554D0B
:1011E0002B68D3F80C24D10720D50122524CC3F828
:1011F0001024002000F01CFD226892F856300133C4
:1012000082F85630FFF7DAFB4C4B4D4A1B7823B976
:10121000216811B1107881F8460012781AB1494E50
:101220003178002933D0002000F012FD2B68D3F86C
:101230000C24920759D50222C3F81024424B434D87
:101240001968434B28681B88424C434A182B4DD1E0
:10125000D4F8043423F00803C4F8043470BB3F4BC3
:101260001B885B0803EB43030B4493623C4B012652
:101270005E6200F051FBD4F8043443F00803C4F874
:1012800004342E602B48BDE8704004F0DEBD1BB175
:10129000206808B106F01AFB2C4B002018602C4B7C
:1012A0001B88182B07D100F025FB224804F0CDFD48
:1012B00001233370BAE700F009FBF6E7284B91628F
:1012C00001225A6200F016FBD4F8043443F00803FC
:1012D000C4F80434002000F0BBFC1A4B00221A7042
:1012E000154B186808B1FFF775FF70BD0130286015
:1012F000D4F80434032823F00803C4F8043411DCC0
:10130000164B1B885B0800FB03139362144B0122EE
:101310005A6200F0DBFAD4F8043443F00803C4F84E
:101320000434AFE70E4B916201225A62002000F0B4
:10133000CDFAC9E79031002020300020D0090020EC
:1013400010000020D4090020C8090020CC0900208A
:10135000D2090020006C0140846801401A3000204E
:1013600000680140064B5A68920707D502229A602E
:10137000044B1B68586803685B691847704700BFD7
:1013800000B0024020300020406870474160704744
:10139000054A136843F080731360044A136843F0EE
:1013A00001031360704700BFFCED00E0001000E097
:1013B000521A02EB5302B2FBF3F07047014B18686C
:1013C000704700BF041000E0704710B50C210446C0
:1013D00009F006FD204610BD10B5036804461B69E0
:1013E00031B19847A26863689B1A1844606010BDC9
:1013F0009847A060FBE770477047000008B500F011
:101400002CF8024B00221A6008BD00BFD50900204D
:10141000F8B50F4600F025F80B4A93785578147804
:10142000D370C6B213F001009570547016700AD0D4
:1014300015F0010007D014F0010004D0F3075ABFE3
:10144000012038700020F8BDD509002010B5042116
:10145000044609F0C5FC204610BD0021084602F0F4
:101460009FB8002002F0D6B87047012070470C20CA
:1014700070470C2303FB0100083070470C2303FB6B
:10148000010008307047012070474FF484707047A6
:101490004FF4847303FB0100083070474FF48473EA
:1014A00003FB01000830704701207047102070478F
:1014B00000EB01100830704700EB01100830704756
:1014C0000846FFF74FB8000010B5034B0360044611
:1014D00005F064FC204610BD54B8000810B5044661
:1014E000FFF7F2FF2046142109F07AFC204610BDD8
:1014F00010B5034B0360044605F050FC204610BDB8
:1015000020B8000810B50446FFF7F2FF20464FF45C
:10151000887109F065FC204610BD000010B5034B32
:101520000360044605F03AFC204610BDECB7000805
:1015300010B50446FFF7F2FF2046182109F050FCD1
:10154000204610BD10B5084B0360044600F59E70A0
:10155000FFF7BAFF04F12C00FFF7CAFF04F11400F3
:10156000FFF7DCFF204610BD88B8000810B5044620
:10157000FFF7E8FF20464FF4297109F031FC2046BF
:1015800010BD10B50421044609F02AFC204610BD08
:1015900008B502F0ADFF044B1B781BB1BDE8084055
:1015A00001F0FABA08BD00BF5C1800202DE9F04F29
:1015B000DFF8DC829BB002F081FFD8F8403043F0C6
:1015C0008053C8F84030D8F8403003F08053069379
:1015D000069BA34B1A6842F440421A601B6803F44E
:1015E000404307934FF0020A079B4FF48003CDE975
:1015F00013A34FF4B4734FF00109CDE9163A4FF03D
:10160000070B062308250DA8CDE90D99CDE918B3E0
:10161000159505F089F800B1FEE704F0A9FC00B1CA
:10162000FEE70F23CDE9083A0A904FF4A0534FF498
:101630008056052108A8CDE90B3604F0E5FC0446E8
:1016400000B1FEE702F088FBD8F83030854F43F454
:101650008053C8F83030D8F8303003F48053059305
:10166000059B02F0C1F902F039F95B2002F0AEFFF0
:1016700002F024F802F07EF87B4840F27713036111
:1016800003230393C3610560846204F029FE774A53
:101690003A60384604F0C1FA7549C7F80C904FF02B
:1016A000040B7D223846C1E9002A8C60C7F808B0D7
:1016B00004F00AFA6F49704D0C604FF4C8701022A4
:1016C000C1E9020205223846C1E90544CC610C613A
:1016D000C1E90844C1F828904A6004F0CDFA4FF4FB
:1016E000807C4FF40072C5E900C24FF4806E4FF465
:1016F00000624FF40053C5E902E24FF48042C5E9AD
:1017000005324FF480314FF40032C5E907122E61E3
:101710004FF40022594E4FF480202946C5E90902B2
:10172000384604F02FFB304603F06DFE544AC6F8ED
:1017300020A04FF4C97CC6E900244FF4F172C6E939
:1017400009C240F2931E40F2E312C6E90BE2C6E979
:101750000449C6E9069AC6E90244B48686F83640CA
:10176000304603F0D1FD384604F058FB4946204688
:1017700002F052FC29463846C5E90044C5E9024456
:10178000C5E90444C5E90644C5E90844AC6204F06F
:10179000F9FA5946384604F02DFBD8F8302039487C
:1017A00042F40072C8F83020D8F83020039B109320
:1017B00002F400720DA90D230892089A1193CDE945
:1017C0000DBA0F9403F0F8F8384604F03EFB0D9480
:1017D0000F9401F0A9FF4FF040431693FF23CDE98A
:1017E00012341090ADF864408DF8664001F09CFF13
:1017F000189001F093FF0723CDF8449040084FF470
:10180000C069CDE914930E9001F088FF400822468C
:101810000DA91790304603F002FE204601F08AFF22
:10182000194B01932A23009321465B4639223846FF
:1018300004F048FB154B01932B23214600933922DA
:101840005B46384604F03EFB01F068FF2246014645
:10185000304603F00DFE00F00BFA1BB0BDE8F08F30
:101860000070004090310020500D0020006C0140BD
:1018700050180020F00C00201C0D0020E830002043
:1018800000680140002402401E00002036000020B5
:101890000038024037B50B4A0B4C02231525137054
:1018A000557001924422009200213922204604F012
:1018B00009FB0021009135232A46204604F0D7FA7F
:1018C00003B030BD4D1800209031002007B5074B04
:1018D00003EB80002A230190009339220423002186
:1018E000034804F0EFFA03B05DF804FB2600002083
:1018F0009031002007B5064B01932A23009339222B
:1019000004230021034804F0DDFA03B05DF804FB72
:101910001E0000209031002007B5064B01932A23BA
:101920000093392204230021034804F0CBFA03B0CA
:101930005DF804FB22000020903100202DE9F743E0
:101940005C4E3578BFF35B8F15F001058046894604
:1019500017461C464CD13046FFF769F8002847D09F
:10196000A3B2554CBDF82800A584012284F8452077
:1019700084F8462002F180726265504A84F826504D
:1019800014604F4AA56213804E4AA58510804E4AC6
:1019900084F8445015704D4A84F858508342C4E985
:1019A0000189C4E90375C4E90555C4E90755C4E9CB
:1019B0000D55C4E90F5584F8595084F85A5084F8ED
:1019C0005B5084F85C50256684F865501380404A6B
:1019D0002CBF00230123108084F8303030463D4B6B
:1019E0002360FFF725F83C4A3C49204609F0F2F90C
:1019F00031483B4F05F07AFDFEF73EFF0446FEF707
:101A00003FFF0D9B00930146DDE90B23204607F0C5
:101A1000EBFD344B344A1A600020FEF74BFF33488D
:101A200007F04CFD3B78BFF35B8FDB0738D43846BB
:101A3000FEF7FDFF002833D02D4E2E4B336006F508
:101A4000A87806F1140006F12C0506F59E74706066
:101A5000B560F460C6F8108005F0A2F9264B7361FA
:101A6000284605F09DF9254BF362204605F098F9CC
:101A7000234BC6F83C31324606F528714046FEF746
:101A8000FBFB06F52870FEF7CBFB4046FEF76AFD30
:101A90003846FEF7CDFF104A1A49304609F09AF948
:101AA00006F058FC0146044805F062FC024803B009
:101AB000BDE8F083DC090020E00900202030002090
:101AC0001430002016300020183000201A3000207A
:101AD0001C3000205CB6000880090020C10F0008FF
:101AE000480A00208C3000204C18002014000020F0
:101AF0004C0A002088B80008ECB7000820B800089D
:101B000054B8000845150008F0B585B000254FF41D
:101B1000F073CDE9025501950093144A1449154814
:101B20004FF44873FFF70AFF134B01261E70134B47
:101B30001A880368009604465F6F4FF040412B46B9
:101B4000B8470F4B84F85850636184F8465002231D
:101B50000C4D84F85430282384F845302846FFF78C
:101B600017FC256184F85C6005B0F0BD8C0D002089
:101B700018000020940D00205C1800201C0000209C
:101B80003C1800204018002038B5194C194D1A494E
:101B90001A48224609F01EF92846FFF7B1F92246F5
:101BA0001749284609F016F91648174B17490360DC
:101BB00000252246057109F00DF91548154B4560C1
:101BC000224685601449154D036009F003F9224649
:101BD0001349144809F0FEF8134B2B602846FFF711
:101BE0000DFC224628461149BDE8384009F0F2B8FC
:101BF00080090020940D00204F08000814000020E8
:101C00000D0B00088C0D00206CB50008A50A00081B
:101C100040180020A8B70008C91300083C1800208D
:101C20006914000818000020D0B70008F913000854
:101C3000064A0121115408B901F0A2BC0128FBD0C9
:101C40000228F9D00328F7D0704700BF5D180020A4
:101C5000064A0021115408B901F082BC0128FBD0CA
:101C60000228F9D00328F7D0704700BF5D18002084
:101C700008B5002001F026FC012001F023FC022021
:101C800001F020FC032001F01DFC0020FFF7E0FF25
:101C90000120FFF7DDFF0220FFF7DAFF0320BDE898
:101CA0000840FFF7D5BF0000034B1B5C0BB1FFF7EB
:101CB000CFBFFFF7BDBF00BF5D18002000F10803D4
:101CC0004FF0FF324360C0E9022303610023036049
:101CD000704700230361704743684B609A688A60CD
:101CE0009A68516099600861036801330360704726
:101CF0000A68531C30B50AD103695A684A6091607A
:101D00008B605960086103680133036030BD00F1E6
:101D100008035C6825689542EFD82346F9E7D0E9C7
:101D200001329A60D0E901235A6003695A688242FD
:101D300004BF82685A600022026118680138186086
:101D4000704738B51546026C04464AB905681DB996
:101D5000406800F0E1FD6560A36B0133A36338BD0B
:101D600065B9806809F057F8A368226C134462686B
:101D7000A3609342F0D32368A360EDE7C06809F045
:101D80004AF8236CE26821685B421A448A42E260A6
:101D90003EBF62689B18E360022DDDD1A36B002B70
:101DA000DAD0A36B013BA363D6E7034630B41C68CB
:101DB00008465CB1D9681A6C5D681144A942D960C3
:101DC00028BFDC60D96830BC09F025B830BC70474A
:101DD00038B5044600F09CFE04F12405A36C002BEA
:101DE00012DC4FF0FF33A36400F0A4FE00F090FE7D
:101DF00004F11005636C002B13DC4FF0FF336364B8
:101E0000BDE8384000F096BE636A002BE9D0284652
:101E100000F0CAFC08B100F03FFDA36C013BA364D5
:101E2000DCE72369002BE8D0284600F0BDFC08B1B0
:101E300000F032FD636C013B6364DBE738B50D46AF
:101E4000044610B900F04EFEFEE700F061FED4E952
:101E50000F302268A2604343D1181B1A13446160FB
:101E6000E36000214FF0FF33A1636364A3646DB9A5
:101E700023693BB104F1100000F096FC012801D168
:101E800000F024FE00F056FE012038BD04F11000E1
:101E9000FFF714FF04F12400FFF710FFF2E7F8B595
:101EA0000E461746054670B1502000F059FD044615
:101EB00048B106FB05F0013000F052FD206028B962
:101EC000204600F0ADFD00F00DFEFEE7C4E90F5620
:101ED00001212046FFF7B2FF84F84D702046F8BD7F
:101EE0002DE9F04385B0884601921E46044610B99C
:101EF00000F0F8FDFEE721B9036C13B100F0F2FD2C
:101F0000FEE7022E05D1E36B012B02D000F0EAFDC3
:101F1000FEE700274FF000093FE0019D1DB900F0EA
:101F200009FE002053E017B902A800F077FC00F08A
:101F300001FE00F067FA00F0EBFD636C013308BFAF
:101F4000C4F84490A36C013308BFC4F8489000F073
:101F5000F1FD01A902A800F071FC00283AD100F0BF
:101F6000D7FDA26BE36B9A420FD100F0E3FD01991C
:101F700004F1100000F0F2FB2046FFF729FF00F00B
:101F8000DFFA48B900F0A2FD06E000F0D3FD2046DC
:101F9000FFF71EFF00F0D4FA012700F0B9FDA26B95
:101FA000E36B9A4201D3022EB7D132464146204616
:101FB000FFF7C7FE636A3BB104F1240000F0F4FBB5
:101FC000012801D100F082FD00F0B4FD012005B030
:101FD000BDE8F0832046FFF7FBFE00F0B1FAA0E772
:101FE0002DE9F041884616461D46044610B900F01A
:101FF00079FDFEE721B9036C13B100F073FDFEE734
:10200000022D05D1E36B012B02D000F06BFDFEE742
:1020100000F03CFE00F066FDA26BE36B9A420746BF
:1020200001D3022D1FD12A4641462046FFF789FEE3
:10203000A36C013313D1636A0BB9012409E004F1E5
:10204000240000F0B1FB0028F7D0002EF5D00124C9
:102050003460384600F06AFD2046BDE8F081A36C8C
:102060000133A364E9E70024F3E72DE9F04385B0E9
:102070000E4601929946044610B900F033FDFEE782
:1020800021B9036C33B100F02DFDFEE700274FF0BE
:10209000000853E00F46FAE7636AE560002B6CD056
:1020A00004F1240000F080FB002866D063E0019D6D
:1020B0001DB900F03FFD002062E017B902A800F052
:1020C000ADFB00F037FD00F09DF900F021FD636CE1
:1020D000013308BFC4F84480A36C013308BFC4F8BF
:1020E000488000F027FD01A902A800F0A7FB002806
:1020F00049D100F00DFDA36BC3B900F01BFD2368AF
:1021000033B900F005FD606800F0D2FB00F012FD6D
:10211000019904F1240000F021FB2046FFF758FE4E
:1021200000F00EFA48B900F0D1FC06E000F002FD24
:102130002046FFF74DFE00F003FA012700F0E8FC0F
:10214000A36B002BB3D031462046E568FFF72DFE88
:10215000B9F1000FA0D1A36B013BA363236813B9AE
:1021600000F0A0FB606023693BB104F1100000F0B7
:102170001BFB012801D100F0A9FC00F0DBFC0120D1
:1021800005B0BDE8F0832046FFF722FE00F0D8F945
:1021900091E7000010B50E4B1A6850600D4A1268A6
:1021A0008242044607D90C4A10681968BDE81040FD
:1021B0000431FFF79DBD094A106819680431FFF723
:1021C00097FD074B1A68A24288BF1C6010BD00BF74
:1021D00064180020581900206C180020681800208E
:1021E0003C0000202DE9F84FDDF830B00F461546D1
:1021F0009A46DDE90A68814610B900F073FCFEE7F3
:10220000042E02D900F06EFCFEE7502000F0A8FB7F
:10221000044670B1BBF1000F03D1A80000F0A0FB91
:102220008346C4F830B0BBF1000F06D1204600F061
:10223000F7FB4FF0FF30BDE8F88FAD002A46A5212F
:10224000584608F0F3FD236B043D1D4425F00705B7
:102250007B1E04F13402093713F9011F02F8011B38
:1022600093F9001009B1BB42F6D14FF0000B271DC6
:10227000384684F83DB0E662A664FFF72AFD04F113
:102280001800FFF726FDC6F105032461A36164620F
:10229000C4F84CB052464946284600F0F7FB20608F
:1022A000B8F1000F01D0C8F8004000F031FC2F4B0E
:1022B0002F4D1A68DFF8EC8001321A602A68002A74
:1022C0004AD12C601B68012B27D12A48DFF8D8A0FF
:1022D000DFF8D890FFF7F2FC2748FFF7EFFC27481C
:1022E000FFF7ECFC2648FFF7E9FC2648FFF7E6FC81
:1022F0005046FFF7E3FC4846FFF7E0FC2248FFF7B3
:10230000DDFC2248FFF7DAFC2148FFF7D7FC214B20
:10231000C3F800A0204BC3F80090204A1368013393
:1023200013601F4A23641168E36A8B4288BF1360FD
:10233000104A142000FB03203946FFF7CDFC00F0C3
:10234000F9FBD8F800302BB12B68DB6AB34201D21D
:1023500000F0BCFB01206EE7D8F80030002BDCD188
:102360002B68DB6AB34298BF2C60D6E7D4180020F4
:10237000641800207018002084180020981800208D
:10238000AC180020C01800201819002044190020A3
:1023900030190020681800206C180020E018002078
:1023A000E81800202C190020EC180020001900204B
:1023B00030B5002485B0CDE90244CDE90044234680
:1023C00040220C490C48FFF70DFF012805460AD1B1
:1023D00000F088FB094B1D60094B1C6005B0BDE88F
:1023E000304000F0FFBB10B900F07CFBFEE705B009
:1023F00030BD00BFA8B80008092600082C1900202D
:1024000058190020024A136801331360704700BF57
:10241000DC1800202DE9F84F3E4B1B68002B71D1D2
:102420003D4B1A6801321A601D68B5B93B4B1A68FA
:10243000126812B100F056FBFEE7394A19681068BD
:102440001860116037490A6801320A601A68116819
:10245000354AD9B94FF0FF331360334C334F2368FB
:10246000AB424FF0000B16D93A68314BD16A1422B7
:102470004A439A58022A28BF4FF0010B2D4A12688E
:10248000002A0CBF58460120BDE8F88F1B68DB68A6
:10249000DB685B68E0E7DFF88490DFF8A0A0D9F89C
:1024A0000020126842B1D9F80020D268D66871685D
:1024B0008D4205D22160D7E74FF0FF322260D3E78B
:1024C00006F104084046FFF72AFCB16A19B106F18B
:1024D0001800FFF724FCF06ADAF80010144B884269
:1024E0004FF0140288BFCAF80000414602FB0030DA
:1024F000FFF7F2FB3868F16AC26A914228BF4FF0D9
:10250000010BCCE70C4A1368013313604FF0000B4A
:10251000B4E700BFDC18002058190020681800201C
:102520006C180020141900203C00002064180020C2
:10253000701800205C190020D8180020E81800202E
:102540002DE9F041284C236813B900F0CBFAFEE7DF
:1025500000F0DEFA2368013B236023682BB10024DE
:1025600000F0E8FA2046BDE8F081204B1B68002B04
:10257000F5D01F4D1F4EDFF88C802B686BB91E4CB9
:1025800023681BB11D4D012623682BBB1B4B1C6808
:10259000012CE4D100F09AFAE2E7EB68DC68271D31
:1025A00004F11800FFF7BBFB3846FFF7B8FBE36AFE
:1025B00032681420934200FB0380394688BF3360A1
:1025C000FFF78AFB0E4BE26A1B68DB6A9A42D4D3A0
:1025D0000A4B01221A60CEE7FFF71CFF00B12E6004
:1025E0002368013B2360CFE7DC180020D4180020CB
:1025F00018190020E8180020D81800205C190020C5
:10260000641800207018002008B5154E154C23687A
:1026100043B9154B1B68012B01D900F057FAFEF79F
:10262000FFF9F3E7FFF7EEFE3568FFF789FF002DAE
:10263000EDD000F06DFAF368DD68281DFFF76FFB41
:102640000A4A1368013B13602368013B236000F0D2
:1026500071FA286B00F0E4F9284600F0E1F9D6E7BA
:1026600044190020E418002070180020D41800201D
:1026700038B50D46044608B9044B1C6800F048FA0A
:10268000E564BDE8384000F055BA00BF641800208A
:1026900008B9044B1868C36C0BB1084618471846B4
:1026A000704700BF6418002070B5264B1A68264B8F
:1026B00012B101221A6070BD244C1A6020680121F9
:1026C000FFF7E6FF2268236812681B6B9A4204D862
:1026D000206821683431FEF7A1F923681C49186B82
:1026E000142208F089FB20B1206821683431FEF7FC
:1026F00095F9184A18491423164608685843105883
:10270000B8B109684B43D018083345686D68456017
:1027100013449D4204BF6B684360142303FB0161B3
:102720004B68DB68236020680021BDE87040FFF73C
:10273000AFBF086810B900F0D5F9FEE708680138A6
:102740000860DAE7DC1800205C190020641800201B
:1027500094B8000870180020E818002038B50D461D
:1027600010B900F0BFF9FEE70C4C21681831FFF7F3
:10277000BFFA20680430FFF7D2FA6B1C06D121683B
:1027800007480431BDE83840FFF7A6BA054B186882
:102790002844BDE83840FFF7FDBC00BF64180020A6
:1027A000301900205819002038B5C368DC6814B906
:1027B00000F098F9FEE704F118052846FFF7AFFA94
:1027C000104B1B68DBB9251D2846FFF7A8FA0E4AF7
:1027D000E36A11688B4288BF13600C4A14202946B3
:1027E00000FB0320FFF778FA094BE26A1B68DB6AFB
:1027F0009A4223BF074B01201860002038BD2946AC
:102800000548EFE7DC180020E818002070180020C9
:10281000641800205C1900201819002008B510B9B0
:1028200000F060F9FEE7034B1B680360024B1B6876
:10283000436008BD141900205819002070B50D46DA
:10284000044610B900F04EF9FEE711B900F04AF95C
:10285000FEE700F05DF90E4B19682B685A1C10D08A
:102860000C4A1068D4E90062864201D091420DD230
:10287000881A83420AD95B1A13442B602046FFF75B
:10288000CDFF002400F056F9204670BD0124F9E781
:102890005819002014190020014B01221A607047BA
:1028A0005C190020014B1868704700BF64180020B5
:1028B000F8B5044638B3154EC36A3268D26A9342FB
:1028C00021D23268124DD26AC2F10502826114220D
:1028D00002FB035342699A4212D1071D3846FFF7A3
:1028E0001EFA33680B4ADB6A1168E3628B420BD82D
:1028F0001420394600FB0350BDE8F840FFF7ECB95F
:102900003368DB6AC362F8BD1360F1E76418002026
:1029100070180020E818002038B50446D0B1C26A0B
:10292000836C9A4216D0051D2846FFF7F8F9A36C70
:10293000E362C3F10502A261074A11688B4288BFB6
:102940001360064A1420294600FB0320BDE83840E6
:10295000FFF7C2B938BD00BFE8180020701800208A
:1029600070B50446FFF74EFD2848016871B9284B41
:10297000284A23F00703C2E90031274A41F274557F
:10298000C2E90015C3E90025012303602CB1083416
:1029900063071CBF24F007040834621E41F272531F
:1029A0009A4205D9FFF7CCFDFEF739F8002526E05D
:1029B000184A13685968A14201D2196809BB16491F
:1029C0008B42EFD01968156811605968091B1029EE
:1029D00005F108050AD91A1951605C6054680D495F
:1029E00008684668A6420FD310600A600B495B680E
:1029F0000A68D21A0A60FFF7A3FD002DD4D028463A
:102A000070BD1A460B46D5E70146E9E7E42E0020E3
:102A100068190020E82E0020DC2E00204000002055
:102A200038B50446C8B1A0F10805FFF7EBFC54F82F
:102A3000041C0A4B1A68506888420CD344F8082CCE
:102A4000074A1D6054F8043C11680B441360BDE84C
:102A50003840FFF775BD1346ECE738BDE82E00207F
:102A60004000002003480068006880F3088862B6D0
:102A700000DF00BF08ED00E0DFF80C00016841F462
:102A8000700101607047000088ED00E04FF0807336
:102A900040E90213054B40F80C3C6FF0020340F88C
:102AA000202C40F8243C4438704700BFF52A000829
:102AB000054B19680868B0E8F04F80F309884FF0BB
:102AC000000080F31188704764180020044B4FF019
:102AD00080521A60BFF34F8FBFF36F8F704700BFF4
:102AE00004ED00E0EFF311804FF4A07181F3118841
:102AF0007047002008B5054B1B68013302D0FFF773
:102B0000F1FFFEE7FFF7EEFFFEE700BF4400002005
:102B100008B5FFF7E7FF044A136801331360BFF3FA
:102B20004F8FBFF36F8F08BD4400002080F31188E2
:102B300070470000034B18680138186008B9FFF7A8
:102B4000F5BF704744000020EFF30980114B1A686D
:102B50001EF0100F08BF20ED108A20E9F04F106022
:102B60004DF8043D4FF4A07080F31188FFF79CFDF1
:102B70004FF0000080F3118808BC19680868B0E8BD
:102B8000F04F1EF0100F08BFB0EC108A80F30988D8
:102B9000704700BF6418002008B5FFF7A3FFFFF7D8
:102BA00039FC18B1044B4FF080521A600020BDE888
:102BB0000840FFF7BBBF00BF04ED00E0064B4FF439
:102BC0007A721B68B3FBF2F3044A013B1360044BB7
:102BD00007221A60704700BFA000002014E000E048
:102BE00010E000E013B5234B1A78D2B20192FF2215
:102BF0001A701B78204ADBB28DF803309DF8033041
:102C000003F0400313701D4B07221A6000219DF84A
:102C10000300000602F1FF3423D401B11A601A68E0
:102C2000120202F4E0621A60019B124ADBB21370D6
:102C3000134B1A6842F47C021A601A6842F07C4214
:102C40001A60FFF7BBFF0F4B00221A60FFF714FF5B
:102C50000D4A136843F040431360FFF703FFFFF78B
:102C600049FF9DF803205200D2B28DF803200121C4
:102C70002246CCE700E400E0F02E0020F42E0020F5
:102C800020ED00E04400002034EF00E008B5EFF351
:102C900005830F2B08D90A4A9B5C0A4A12789A428C
:102CA00002D9FFF71FFFFEE7074B084A1B681268AF
:102CB00003F4E063934202D9FFF714FFFEE708BD77
:102CC000F0E300E0F02E00200CED00E0F42E0020F8
:102CD000684620F007018D4601B5FEE7684620F002
:102CE00007018D4601B5FEE7684620F007018D46D5
:102CF00001B5FEE7684620F007018D4601B5FEE705
:102D0000684620F007018D4601B5FEE7684620F0D1
:102D100007018D4601B5FEE7684620F007018D46A4
:102D200001B5BDE80140854670470000684620F0C7
:102D300007018D4679B5134A134B14498B4213D3BF
:102D4000134B144A0021934213D3134E134CA41B6C
:102D5000A4100025A5420FDB03F074FFFDF78AFEE7
:102D6000BDE879408546704752F8040F43F8040BDC
:102D7000E4E743F8041BE6E756F8253098470135A9
:102D8000E8E700BF5CCD000800000020E808002054
:102D9000E8080020403200204CCD000858CD000843
:102DA000684620F007018D4601B5BDE80140854623
:102DB0007047684620F007018D4601B5BDE8014027
:102DC00085467047684620F007018D4601B5BDE88D
:102DD000014085467047684620F007018D4601B5E1
:102DE000BDE8014085467047684620F007018D46E2
:102DF00001B5BDE8014085467047684620F00701EF
:102E00008D4601B5BDE8014085467047684620F013
:102E100007018D4601B5BDE801408546704768460B
:102E200020F007018D4601B5BDE801408546704799
:102E3000684620F007018D4601B5BDE80140854692
:102E40007047684620F007018D4601B5BDE8014096
:102E500085467047684620F007018D4601B5BDE8FC
:102E6000014085467047684620F007018D4601B550
:102E7000BDE8014085467047684620F007018D4651
:102E800001B5BDE8014085467047684620F007015E
:102E90008D4601B5BDE8014085467047684620F083
:102EA00007018D4601B5BDE801408546704768467B
:102EB00020F007018D4601B5BDE801408546704709
:102EC000684620F007018D4601B5BDE80140854602
:102ED0007047684620F007018D4601B5BDE8014006
:102EE00085467047684620F007018D4601B5BDE86C
:102EF000014085467047684620F007018D4601B5C0
:102F0000BDE8014085467047684620F007018D46C0
:102F100001B5BDE8014085467047684620F00701CD
:102F20008D4601B5BDE8014085467047684620F0F2
:102F300007018D4601B5BDE80140854670476846EA
:102F400020F007018D4601B5BDE801408546704778
:102F5000684620F007018D4601B5BDE80140854671
:102F60007047684620F007018D4601B5BDE8014075
:102F700085467047684620F007018D4601B5BDE8DB
:102F8000014085467047684620F007018D4601B52F
:102F9000BDE8014085467047684620F007018D4630
:102FA00001B5BDE8014085467047684620F007013D
:102FB0008D4601B5BDE8014085467047684620F062
:102FC00007018D4601B5BDE801408546704768465A
:102FD00020F007018D4601B5BDE8014085467047E8
:102FE000684620F007018D4601B5BDE801408546E1
:102FF0007047684620F007018D4601B5BDE80140E5
:1030000085467047684620F007018D4601B5BDE84A
:10301000014085467047684620F007018D4601B59E
:10302000BDE8014085467047684620F007018D469F
:1030300001B5BDE8014085467047684620F00701AC
:103040008D4601B5BDE8014085467047684620F0D1
:1030500007018D4601B5BDE80140854670476846C9
:1030600020F007018D4601B5BDE801408546704757
:10307000684620F007018D4601B5BDE80140854650
:103080007047684620F007018D4601B5BDE8014054
:1030900085467047684620F007018D4601B5BDE8BA
:1030A000014085467047684620F007018D4601B50E
:1030B000BDE8014085467047684620F007018D460F
:1030C00001B5BDE8014085467047684620F007011C
:1030D0008D4601B5BDE8014085467047684620F041
:1030E00007018D4601B5BDE8014085467047684639
:1030F00020F007018D4601B5BDE8014085467047C7
:10310000684620F007018D4601B5BDE801408546BF
:103110007047684620F007018D4601B5BDE80140C3
:1031200085467047684620F007018D4601B5BDE829
:10313000014085467047684620F007018D4601B57D
:10314000BDE8014085467047684620F007018D467E
:1031500001B5BDE8014085467047684620F007018B
:103160008D4601B5BDE8014085467047684620F0B0
:1031700007018D4601B5BDE80140854670476846A8
:1031800020F007018D4601B5BDE801408546704736
:10319000684620F007018D4601B5BDE8014085462F
:1031A0007047684620F007018D4601B5BDE8014033
:1031B00085467047684620F007018D4601B5BDE899
:1031C000014085467047684620F007018D4601B5ED
:1031D000BDE8014085467047684620F007018D46EE
:1031E00001B5BDE8014085467047684620F00701FB
:1031F0008D4601B5BDE8014085467047684620F020
:1032000007018D4601B5BDE8014085467047684617
:1032100020F007018D4601B5BDE8014085467047A5
:10322000684620F007018D4601B5BDE8014085469E
:103230007047684620F007018D4601B5BDE80140A2
:1032400085467047684620F007018D4601B5BDE808
:10325000014085467047684620F007018D4601B55C
:10326000BDE8014085467047684620F007018D465D
:1032700001B5BDE8014085467047684620F007016A
:103280008D4601B5BDE8014085467047684620F08F
:1032900007018D4601B5BDE8014085467047684687
:1032A00020F007018D4601B5BDE801408546704715
:1032B000684620F007018D4601B5BDE8014085460E
:1032C0007047684620F007018D4601B5BDE8014012
:1032D00085467047684620F007018D4601B5BDE878
:1032E000014085467047684620F007018D4601B5CC
:1032F000BDE8014085467047684620F007018D46CD
:1033000001B5BDE8014085467047684620F00701D9
:103310008D4601B5BDE8014085467047684620F0FE
:1033200007018D4601B5BDE80140854670476846F6
:1033300020F007018D4601B5BDE801408546704784
:10334000684620F007018D4601B5BDE8014085467D
:103350007047684620F007018D4601B5BDE8014081
:1033600085467047684620F007018D4601B5BDE8E7
:10337000014085467047684620F007018D4601B53B
:10338000BDE8014085467047684620F007018D463C
:1033900001B5BDE8014085467047684620F0070149
:1033A0008D4601B5BDE8014085467047684620F06E
:1033B00007018D4601B5BDE8014085467047684666
:1033C00020F007018D4601B5BDE8014085467047F4
:1033D000684620F007018D4601B5BDE801408546ED
:1033E0007047000070B52D4C88B0204601F0E4FE17
:1033F000054600284FD12A4A2A4B2B4E2062C4E9A9
:1034000000234FF48043C4E90200C4E90430C4E956
:103410000600336B43F002033363336B059003F014
:1034200002030193019B4FF480711223CDE9031332
:1034300002200423CDE9060303A91C4801F0BCFACD
:103440004FF4007303A91948039301F0B5FA336CE4
:1034500043F400133364336C03F400130293029BB0
:10346000336A43F400133362336A23F40013336284
:103470002A4605211F2001F069F81F2001F09AF863
:103480002A460521202001F061F8202001F092F861
:10349000204601F0B9FC08B070BD00BFF82E002036
:1034A00000540040801A0600003802400004024028
:1034B00008B5034801F01DFDBDE80840FFF792BFC5
:1034C000F82E002070B503288AB0044625D8214D77
:1034D00055F8203005930123CDE9063303230893E3
:1034E0001D4B02281A6B23D003282AD0012816D09E
:1034F00042F040021A631B6B03F040030193019BEF
:10350000164E05A956F8240001F056FA012235F8A6
:10351000241056F8240001F041FB0AB070BD42F0BF
:1035200008021A631B6B03F008030293029BE7E790
:1035300042F008021A631B6B03F008030393039B1A
:10354000DEE742F480621A631B6B03F4806304932A
:10355000049BD5E74C000020003802405C000020AE
:10356000032808D8044B33F82010044B002253F8EA
:10357000200001F013BB70474C0000205C000020CD
:10358000032808D8044B33F82010044B012253F8C9
:10359000200001F003BB70474C0000205C000020BD
:1035A00010B5194B1A6B42F001021A631B6B86B0FF
:1035B00003F001030093009B69B90123CDE90131B8
:1035C00002230493114B039153F8200001A901F049
:1035D000F3F906B010BD0129FBD100240223CDE987
:1035E00003430B4B0293094B019153F8200001A9AF
:1035F00001F0E2F922460F21062000F0A7FF062085
:1036000000F0D8FFE5E700BF003802404800002086
:103610000000111008B5034B012153F8200001F000
:10362000B7FA08BD48000020FFF7DCBE10B586B031
:1036300006AC012304F8012D6422CDE90132009487
:103640000A460146034801F06BFC08B1FFF730FF62
:1036500006B010BDF82E00207FB506AA002302F8A0
:10366000013D4FF47A7C01230092CDE9013C0A46EA
:103670000146054801F0C6FC08B1FFF719FF9DF8A7
:10368000170007B05DF804FBF82E00201FB54FF4BB
:103690007A74CDE90134009201230A4601460548B7
:1036A00001F0B0FC044608B1FFF702FF204604B069
:1036B00010BD00BFF82E002000F028BF70B5154BDC
:1036C000154C1A6B42F080021A631B6B86B003F034
:1036D000800300938025009B1123CDE90153002630
:1036E000032301A92046CDE9036301F065F93246C1
:1036F0002946204601F052FA142000F007FF01226B
:103700002946204601F04AFA0A2000F0FFFE06B0E2
:1037100070BD00BF00380240001C0240014B186819
:10372000704700BF6C000020014B1868704700BF55
:1037300070000020014B1860704700BF342F00203C
:10374000012807B503460AD84A780B780848009242
:103750000021152202F08BFB03B05DF804FB019100
:103760000A5C009200213922014802F0ABFBF3E72A
:10377000903100201FB5274B5A6C42F080625A648A
:103780005A6C02F080620192019A5A6A42F0806299
:103790005A625A6A22F080625A621A6B42F400023C
:1037A0001A631A6B02F400020292029A1A6942F436
:1037B00000021A611A6922F400021A615A6C42F07E
:1037C00000625A645A6C02F000620392039A5A6AC9
:1037D00042F000625A625A6A22F000625A62032181
:1037E0000022582000F0B2FE582000F0E3FE002234
:1037F00003215A2000F0AAFE5A2000F0DBFE00222E
:1038000003215C2000F0A2FE5C2005B05DF804EB13
:1038100000F0D0BE0038024000B595B04FF4807380
:103820000C934FF08072052306930F920023012220
:10383000CDE90323CDE90D330B93CDE91133139378
:103840000093102302934FF48003019205936A467C
:10385000034606A9044801F0E9FF003018BF012023
:1038600015B05DF804FB00BFEC31002000B595B049
:103870004FF480730C930623069341F288320023A1
:1038800006A915480F93CDE90D330B93CDE91133FC
:10389000139301F08EFFE0B90223CDE9003301223A
:1038A0001023CDE902324FF480010523CDE9051341
:1038B0004FF0807304900F936A4641F2883306A953
:1038C000054801F0B3FF003018BF012015B05DF8C6
:1038D00004FB0120FAE700BFEC31002000B591B0F5
:1038E0004FF480730893EB2302934FF440630993E2
:1038F0004FF4005305934FF040720023CDE90A3294
:103900000A22079202A96A4606480F93CDE90D33B1
:10391000019301F0D7FF003018BF012011B05DF80E
:1039200004FB00BFEC310020F0B52C4B2C4C9A6B03
:103930002C4842F002029A639A6B89B002F00202AC
:103940000092009A9A6942F002029A619A6922F002
:1039500002029A611A6B42F002021A631A6B02F0B9
:1039600002020192019A1A6B42F020021A631B6B49
:1039700003F0200302934022029B0223CDE903239C
:1039800001210323CDE905130A2703A900250926F0
:10399000079701F011F84FF4806303A920460393C1
:1039A0000595079601F008F84FF4407303A92046E7
:1039B0000393079701F000F8C02303A9204603935F
:1039C000079600F0F9FF2A460F215B2000F0BEFDAC
:1039D0005B2000F0EFFD09B0F0BD00BF00380240F1
:1039E00000140240000402402DE9F0414A4C4B4BC8
:1039F000236090B0204601F0C0FE074620B10125AB
:103A0000284610B0BDE8F08101462046FFF78CFF44
:103A100001251023C4E90155E3604FF0807696FA42
:103A2000A6F3B3FA83F3DBB2013B4FF48078204670
:103A30002361C4E90587C4E9077701F047FE002840
:103A4000DDD16623CDE909000B900790CDE90D008B
:103A50000F9041F2883202A92046CDF820800293CF
:103A600001F0A7FE08B10425CAE7992341F2883284
:103A700002A92046029301F09CFE0028F3D141F2F6
:103A80008830FFF7C9FE0028EDD18523CDE9090074
:103A90000790CDE90C50CDE90E0041F2883202A921
:103AA0002046CDF8208002930B9601F082FE00287C
:103AB000D9D141F288320DF10701204601F0ABFF68
:103AC0000028D0D1FFF7D2FE05460028CBD18123B4
:103AD0000293F02393FAA3F3B3FA83F39DF807203C
:103AE0000A21DBB202F00F0201FA03F3134302A929
:103AF00041F2883220468DF8073001F05AFE002846
:103B0000B1D141F288320DF10701204601F031FFB9
:103B100000283FF475AFA6E7EC310020001000A0AC
:103B20002DE9F743214C224D01264FF000081027C4
:103B3000214681464FF6FF722846CDF80480C4E93D
:103B40000067C4E9026802F0BAFF304600F0DEFC0C
:103B5000022321464FF6FF722846C4E90037C4E924
:103B6000026802F0ACFF0323C4E9003721460823B2
:103B70004FF6FF722846C4E9023802F0A0FF4FF466
:103B80000C7301930423C4E900372146019BA6600E
:103B90004FF6FF722846E36002F091FF494628463F
:103BA00003B0BDE8F04302F0A1BF00BF382F0020F2
:103BB000BC2F002070B506468EB0002800F0B680FD
:103BC0005B4B5C489A6B42F001029A639A6B02F07D
:103BD00001020092009A1A6B42F480021A631A6B77
:103BE00002F480020192019A1A6B42F004021A63F5
:103BF0001A6B02F004020292029A1A6B42F0080257
:103C00001A631A6B02F008020392039A1A6B42F0CD
:103C100010021A631A6B02F010020492049A1A6BD3
:103C200042F020021A631A6B02F020020592059AF4
:103C30001A6B42F040021A631A6B02F040020692BD
:103C4000069A1A6B42F080021A631A6B02F0800225
:103C50000792079A1A6B42F480721A631B6B03F483
:103C600080730EAC0893089B012344F8143D022294
:103C7000CDE90A2321460C920C220D9200F09CFE05
:103C80004CF2037321462C48099300F095FE4FF641
:103C9000837321462948099300F08EFE4FF63F03B7
:103CA00021462748099300F087FE48F23313214646
:103CB0002448099300F080FE4FF60C7321462248F9
:103CC000099300F079FE40F2FF6321461F48204C23
:103CD0000993002500F070FE80234FF40072C4E9C0
:103CE00001534FF48063C4E903234FF480514FF430
:103CF0008043C4E905134FF40033C4E908350323B6
:103D0000C4E90A352563134B346320462360E5611B
:103D1000A66300F0D5FC204600F092FC38202A462D
:103D2000052100F013FC382000F044FC0EB070BDFB
:103D30000038024000080240000C0240001002401F
:103D40000014024000180240001C02400020024003
:103D5000642F00201064024038B51A4C1A4D1B4BDA
:103D60002360072202230421C5E90032C5E90212BB
:103D7000C5E904332022AB6140230021C4E90423B8
:103D80004FF4C073C4E906314FF400604FF4805320
:103D9000C4E908032046C4E90111E160A162FFF70C
:103DA00009FF2046294602F06AFE094C38B101237A
:103DB000237040F26950FFF7B3FE207838BD2070C1
:103DC000F7E700BFBC2F0020482F0020400100A0D3
:103DD00074000020F8B5114C114D2368074628786F
:103DE0000E469847636854209847112813D10D4B0D
:103DF0005422B7421C601E460B4B2A7034BF01226E
:103E00000C221A705420A368984733682878DB681E
:103E100098470020F8BD0320FCE700BF7800002091
:103E2000F02F002004300020083000202DE9F74F4B
:103E3000374E384D336807461B69287898473870E5
:103E400048B1DFF8D4A0DFF8D49007F102080024CD
:103E50003B78A34203D8002003B0BDE8F08F33685D
:103E600028785B690DF1040B61000BEB01026944DA
:103E700098479AF80020DFF8A8E0100741BF3BF808
:103E800014103DF814302DF814102BF8143091074D
:103E900041BF3DF81430C3F5477303332DF8143098
:103EA000530748BF3BF8143059F824203DF814C09C
:103EB00044BFC3F5EF7301334FEA840148BF2BF8C9
:103EC00014303BF8140051F80EB093B2944588BFFB
:103ED000ACEB03031FFA8BF298BFA3EB0C0358451E
:103EE0008CBF821A121A9BB292B21344052BC8BF20
:103EF00049F801C059F80130C8BF4EF8010028F850
:103F0000023B5EF80130A8F802300134A0E700BFA0
:103F100004300020F02F002008300020F42F002073
:103F2000FC2F002070470020704710B50446FFF7B3
:103F30007BFBA821E0B2FFF78FFB10BD13B5002477
:103F40000221C0B28DF80740FFF786FB8DF807000D
:103F50009DF8073003F00F038DF807309DF8073008
:103F6000022B88BF8DF80740044B9DF807209DF871
:103F700007005A7000229A7002B010BD0B3000206A
:103F800073B5154C1546A37862789A420E461FD930
:103F900003B3012B0CBF0921002104230DEB030205
:103FA000C0B2FFF773FB9DF804309DF805201B029B
:103FB00003F47063134333809DF806309DF80720A7
:103FC0001B0203F4706313432B80A3780133A370A7
:103FD00002B070BD0321E0E70B3000200122A421D4
:103FE000C0B2FFF723BB0022A421C0B2FFF71EBB63
:103FF000FFF7F9BF70470000064A1378984208D0CF
:104000005178884205D00BB119B90123D054FFF77C
:104010000BBB70470930002038B504460D46002020
:10402000CB49FFF78DFBCB490320FFF789FBCA493A
:104030000020FFF785FBC9490220FFF781FBC64935
:104040000020FFF77DFBC6490020FFF779FB0A201F
:10405000FFF732FBC3490020FFF772FBC249002083
:10406000FFF76EFB0A20FFF727FBC0490020FFF790
:1040700067FBBF490020FFF763FBBE490020FFF745
:104080005FFBBD490020FFF75BFBBC490020FFF749
:1040900057FBBB490020FFF753FBAD490020FFF75A
:1040A0004FFBB8490020FFF74BFBB7490020FFF753
:1040B00047FBB6490020FFF743FBB5490020FFF757
:1040C0003FFBB4490020FFF73BFBB3490020FFF75B
:1040D00037FBB2490020FFF733FBB1490020FFF75F
:1040E0002FFBA5490020FFF72BFB99490020FFF784
:1040F00027FBAC490220FFF723FBAB490020FFF769
:104100001FFBAA490020FFF71BFBA9490020FFF76E
:1041100017FBA8490020FFF713FBA7490020FFF772
:104120000FFBA6490020FFF70BFB97490020FFF784
:1041300007FBA3490020FFF703FB95490020FFF789
:10414000FFFAA0490020FFF7FBFA9F490020FFF784
:10415000F7FA9E490220FFF7F3FA7F490020FFF7A4
:10416000EFFA9B490620FFF7EBFA9A490020FFF788
:10417000E7FA99490E20FFF7E3FA98490020FFF784
:10418000DFFA97490E20FFF7DBFA96490020FFF788
:10419000D7FA95490A20FFF7D3FA94490020FFF790
:1041A000CFFA93490020FFF7CBFA6B490020FFF7C5
:1041B000C7FA90490A20FFF7C3FA8F490020FFF79A
:1041C000BFFA8E490F20FFF7BBFA82490020FFF7A4
:1041D000B7FA8B490F20FFF7B3FA80490020FFF7A9
:1041E000AFFA88490A20FFF7ABFA7E490020FFF7B3
:1041F000A7FA85490F20FFF7A3FA7C490020FFF7B3
:104200009FFA82490F20FFF79BFA81490020FFF7B0
:1042100097FA80490A20FFF793FA7F490020FFF7B9
:104220008FFA7E490A20FFF78BFA4B490020FFF7EF
:1042300087FA7B490A20FFF783FA6F490020FFF7CE
:104240007FFA78490F20FFF77BFA62490020FFF7D9
:1042500077FA75490F20FFF773FA60490020FFF7DE
:104260006FFA72490A20FFF76BFA5E490020FFF7E8
:1042700067FA6F490F20FFF763FA5C490020FFF7E8
:104280005FFA6C490F20FFF75BFA3F490020FFF708
:1042900057FA69490020FFF753FA68490020FFF7F1
:1042A0004FFA67490020FFF74BFA29490020FFF732
:1042B00047FA64490320FFF743FA25490020FFF736
:1042C0003FFA23490020FFF73BFA5F491020FFF730
:1042D00037FA1F490020FFF733FA5C491020FFF737
:1042E0002FFA00205A49FFF72BFA7820FFF7E4F95C
:1042F000002C00F0C780022C03D156490020FFF7A4
:104300001FFA012D0BD154490020FFF719FA534928
:104310000420FFF715FA52490420FFF711FA51491A
:104320000020FFF70DFA50490020FFF709FA4F4926
:104330000020FFF705FA4E490020FFF701FA4D492A
:104340000020FFF7FDF902490020FFF7F9F993E09B
:10435000ADB800080FB90008C3B8000895B9000847
:10436000D9B80008EFB8000805B9000807B9000877
:1043700009B900080BB900080DB90008AFB800086A
:10438000B1B80008B3B80008B5B80008B7B800085D
:10439000B9B80008BBB80008BDB80008BFB800082D
:1043A000C1B8000813BA0008C5B80008C7B80008AB
:1043B000C9B80008CBB80008CDB80008CFB80008CD
:1043C000D1B80008D3B80008D5B8000816BA00085C
:1043D00019BA0008D7B8000820BA0008DBB80008EE
:1043E0002FBA0008DDB8000813B90008DFB80008CC
:1043F000FDB800081EB90008E1B8000829B9000896
:1044000039B9000849B9000854B9000864B900086E
:10441000E3B8000874B90008E5B800087FB90008DF
:104420008AB9000898B90008A8B90008B8B9000806
:10443000C3B90008D3B90008FFB8000801B90008E3
:1044400003B90008E3B90008F1B9000802BA00088E
:10445000E7B80008E9B80008EDB80008E7B90008B7
:10446000ECB90008F1B80008F3B80008F5B8000886
:10447000F7B80008F9B8000804490020FFF760F910
:10448000002038BD0249204639E700BFFBB80008CC
:10449000EBB80008704710B5044601F0EDFE4FF48C
:1044A0007A73B0FBF3F000F09FF8002221464FF042
:1044B000FF3000F04BF8002010BD000008B50B4B9A
:1044C0001A6842F400721A601A6842F480621A6034
:1044D0001A6842F480721A60032000F025F8012067
:1044E000FFF7D9FFFFF7D6FF002008BD003C0240D0
:1044F000024A136801331360704700BF1030002078
:10450000014B1868704700BF1030002013B50190B0
:10451000FFF7F6FF0446FFF7F3FF019B001B9842ED
:10452000F9D302B010BD0000074AD36823F4E0635A
:104530001B041B0C43F0BF63000243F4003300F480
:10454000E0600343D360704700ED00E070B5174BA7
:10455000DC68C4F30224C4F10705042D04F104034C
:1045600028BF04254FF0FF36062B06FA05F38CBF53
:10457000033C002421EA0303A34006FA04F422EAE0
:104580000404002843EA0403A8BF00F160404FEA96
:104590000313BCBF00F00F00054ADBB2AABF00F551
:1045A0006140135480F8003370BD00BF00ED00E09F
:1045B00014ED00E04209012300F01F0003FA00F0AF
:1045C000014B43F82200704700E100E0430901225B
:1045D00000F01F0002FA00F02033024A42F82300E4
:1045E000704700BF00E100E00138B0F1807F0AD2DF
:1045F000064B074A5860F02182F82310002007225A
:1046000098601A6070470120704700BF10E000E01A
:1046100000ED00E00368DAB223F47F7323F00303B4
:104620001821103AB2FBF1F20449032A88BF04337F
:10463000895C03654165006D704700BF3EBA0008A4
:1046400038B50446002836D0022380F83530416A58
:1046500000681A4D03681D40D4E901231343E26842
:1046600013432269134362691343A2691343E26946
:104670001343226A042943EA020308BFD4E90B2149
:1046800043EA050304BF0A43134303602268616AD7
:104690005369042923F0070343EA010304BFA16A15
:1046A0000B4353612046FFF7B5FF00200123E06470
:1046B00084F8353038BD0120FCE700BF3F8010F0A2
:1046C00038B5054618B390F83530022B1FD0026874
:1046D000136823F001031360036800241C6003685F
:1046E0005C6003689C600368DC6003681C610368AD
:1046F00021225A61FFF78EFF6A6D3F23934083604A
:10470000EC6485F8344085F83540204638BD0120FA
:10471000FCE770B5049C056844EA03436B640368D6
:10472000DA6343680268B3F5403F30D186681EB152
:10473000012E03D121F07F41916370BD022E01F45F
:104740007F0301F47F45CCB207D1D90CAD0AC90271
:1047500041EA451141EAD401EEE7032E01F07F4022
:104760000AD1DB0CED0A9B0243EA451343EAD4036A
:10477000C10F43EAC131DFE7190D2D0B090241EAF0
:10478000051141EA1411030F41EA0331D4E7D16066
:10479000D3E7704710B5044640B390F8393003F0C2
:1047A000FF021BB980F83820FFF7F3FF2268616829
:1047B000022384F83930136823F440330B43136029
:1047C0002268A168536B23F007030B4353632268ED
:1047D000E168136C23F47F5323F03F030B4313640E
:1047E00000200123E06384F8393010BD0120FCE78C
:1047F000704710B5044640B1FFF7FAFF0020E063B0
:1048000084F8380084F8390010BD0120FCE773B546
:1048100090F83850012D04464FF0020524D00126AF
:1048200080F83860066880F83950356825F0010551
:104830003560069D0095FFF76CFF2268136843F40E
:10484000007313602268136843F480731360226856
:10485000136843F0010313602268136843F40053A4
:104860001360002002B070BD2846FBE773B5164602
:104870001A4690F83830012B04464FF0020327D037
:10488000012580F83850056880F839302B6823F00E
:1048900001032B6003685E61079B0093069BFFF793
:1048A00038FF2268136843F40053136022681368CA
:1048B00043F4007313602268136843F48073136039
:1048C0002268136843F001031360002002B070BD3A
:1048D0001846FBE7F0B590F83830012B4FF0020393
:1048E00032D0012280F8382080F839300468314E07
:1048F00061BBD0E90753616A426A3140A5F10906FC
:10490000012E4FEA03439ABF02F07F42134343EA6A
:1049100002632B430B43636202688169936923F44A
:104920007F5323F03F030B439361C369093B012B82
:1049300004D8436A026823F07F439362012380F81E
:104940003930002380F838301846F0BD0D01471982
:10495000E369D7F81CC01E40ACF10903012B1FD836
:10496000D7E9083202F07F4242EA034242EA0C02EF
:104970001643E661046842192369956923F47F535D
:1049800023F03F032B432361D369093B012BD5D887
:1049900000EB011102684B6A23F07F431362CDE7FD
:1049A000D7E908231B0643EA024343EA0C031E43EC
:1049B000DFE700BFF0FFFC002DE9F74FDFF8C4C1CF
:1049C0006D4ADFF8C4B1DFF8C4A100234FF0010E37
:1049D0000C680EFA03FE0EEA0404A64540F0B2800D
:1049E0004D6825F01005022D14D14FEAD30800EBD5
:1049F000880803F00709D8F820504FEA89090F26E4
:104A000006FA09F625EA06060D6905FA09F53543A1
:104A1000C8F820504FEA43084D6806684FF0030974
:104A200009FA08F96FEA090905F0030509EA06061B
:104A300005FA08F5354305604E6826F01006013E7C
:104A4000012E11D88568CE6809EA050506FA08F630
:104A50002E438660456825EA0E0E4D68C5F30015A5
:104A60009D4045EA0E054560C56809EA05098D685F
:104A700005FA08F545EA0905C5604D68ED0061D500
:104A80003E4E756C45F480457564756C23F00306E5
:104A900006F1804605F4804506F59C36019503F045
:104AA000030E019DD6F808904FF00F084FEA8E0EC6
:104AB00008FA0EF529EA0508314DA84249D005F556
:104AC0008065A84247D005F58065A84245D0584585
:104AD00045D0504545D0604545D005F58055A842A4
:104AE00043D005F58065A84241D005F58065A84210
:104AF0003FD005F58065A8420CBF09250A2505FAB7
:104B00000EF545EA0805B5604F681568E643FF03F2
:104B10004CBF2543354015604F685568BF034CBFF7
:104B20002543354055604F689568FF024CBF2543CB
:104B3000354095604F68D568BF0254BF06EA05044A
:104B40002C43D4600133102B7FF440AF03B0BDE899
:104B5000F08F0025D3E70125D1E70225CFE7032514
:104B6000CDE70425CBE70525C9E70625C7E70725D7
:104B7000C5E70825C3E700BF003C014000380240FC
:104B80000000024000140240000C024000100240ED
:104B90000369194214BF0120002070470AB18161E6
:104BA00070470904FBE7F8B50D4604461646FFF7C3
:104BB000A7FCADB207462368586935EA000012D059
:104BC0005A69510510D51A6842F400721A602368B8
:104BD0006FF480625A610423A3630120002384F8E8
:104BE000350084F83430F8BD721CE5D03EB901239D
:104BF00084F83530002384F834300320F3E7FFF7DE
:104C00007FFCC01BB042D6D9F1E72DE9F8430C4632
:104C1000054691469846FFF773FC260C0746A4B25A
:104C2000B9F1000F29D02968012E0CBF4B698B699F
:104C300034EA03030CBF0122002252B3B8F1FF3F54
:104C4000F2D0B8F1000F10D0FFF75AFCC01B40455E
:104C5000E9D90AE0B8F1FF3F10D0B8F1000F04D055
:104C6000FFF74EFCC01B404507D9012385F83530BE
:104C7000002385F8343003200CE02968012E0CBF96
:104C80004B698B6934EA030314BF01220022002A16
:104C9000E0D10020BDE8F883F7B5154602681F464D
:104CA000136843F4807313600E46089B00224FF094
:104CB00001110446FFF7A9FF68B92368089A18494B
:104CC00006F0FE061E612046FFF76DFF024628B182
:104CD000A36B042B21D0032003B0F0BD23685969D6
:104CE00001919B690193019B0E49089B2046FFF7A8
:104CF0008CFF0028EFD1012F236802D1EDB21D6196
:104D0000EAE72A0A1A610749089B02462046FFF78C
:104D10007CFF0028DFD12368F0E70120DCE700BF3B
:104D20000200010080000100F7B5154602681F4629
:104D3000136843F4806313600268136843F480735C
:104D400013600E46089B00224FF001110446FFF746
:104D50005CFF88B923682949F6B206F0FE021A61A1
:104D60002046089AFFF71FFF024638B1A36B042BB9
:104D700002D1012003B0F0BD0320FBE7236859698D
:104D800001919B690193019B1D49089B2046FFF7F8
:104D90003CFF02460028EFD1012F236823D1EDB25A
:104DA0001D610022089B16492046FFF72EFF024690
:104DB0000028E1D121680B6843F480730B60204622
:104DC000089B4FF00111FFF720FF0028D4D1236882
:104DD000089A0A4946F001061E612046FFF7E3FEE5
:104DE0000028C3D1C6E7290A19612046089B044957
:104DF000FFF70BFF0028BFD12368D0E702000100B6
:104E0000800001007047000010B50446002868D0FB
:104E100090F8353003F0FF021BB980F83420FFF71B
:104E2000F1FF2268022384F83530136823F0010370
:104E3000136001F03DFA23682B4AB0FBF2F25A608E
:104E400061682A4B994285BF4FF496735343531CB4
:104E50004FF47A7288BFB3FBF2F3226888BF013344
:104E600013626368214A934223D85B00B0FBF3F0DE
:104E7000C0F30B03032B98BF04202368D861D4E947
:104E8000073122680B431360D4E9031322680B43F4
:104E90009360D4E9053122680B43D360226813681C
:104EA00043F00103136000200123A06384F8353030
:104EB00010BDA2684AB903EB4303B0FBF3F0C0F3A3
:104EC0000B0363B140F40040D7E719225343B0FB12
:104ED000F3F0C0F30B0313B140F44040CDE70120E1
:104EE000CBE70120E4E700BF40420F00A0860100AD
:104EF000704710B5044680B10268022380F835304F
:104F0000136823F001031360FFF7F2FF0020A06392
:104F100084F8340084F8350010BD0120FCE700005F
:104F20002DE9F74F90F835400C9FBDF83460E4B29E
:104F3000012C0546894692469B4603D0022003B0C9
:104F4000BDE8F08F87B37EB342F2107322462B493F
:104F5000FFF75BFE80460028F0D195F83430012B36
:104F6000ECD02A6885F83440136823F4006313609A
:104F7000322385F835300E9BA863009352465B467A
:104F800049462846FFF788FE48B91D4C0E9B002273
:104F900021462846FFF739FE40B10320CFE7AB6B2F
:104FA00085F83480042BF8D12046C8E72B683A787E
:104FB0001A612A685169731E49079BB216D40137DA
:104FC0001E46002EE2D10E9B0D4900222846FFF717
:104FD0001CFE0028E1D12A68136843F400731360B3
:104FE000012385F8353085F83400A8E7002BEAD096
:104FF0007B781361023EB6B20237E2E7020010008E
:10500000800001002DE9F04F90F8357089B0FFB2B3
:10501000012F0446039192469B46129DBDF84C60B9
:10502000DDF8508005D04FF0020A504609B0BDE8C7
:10503000F08F3DB336B342F210733A465B49FFF747
:10504000E4FD81460028EED194F83430012BEAD0FB
:10505000226884F834701368039923F400631360A2
:10506000422384F835305246A063CDF800805B4679
:105070002046FFF759FE824630B1A36B84F8349086
:10508000042B1FD1BA46D0E7012E23681DD11A6820
:1050900022F480621A6023685A6905929A6905921F
:1050A000059A1A6842F400721A60414F032E434673
:1050B0004FF0000262D8012E2CD13D492046FFF767
:1050C000A4FDE8B14FF0030AAFE7022E0FD11A6832
:1050D00022F480621A602268136843F4006313604C
:1050E00023685A6906929B690693069BDDE75A6915
:1050F00007929B690793079BD7E71E461546D5E79E
:1051000023681B692B70012384F83530002384F851
:1051100034308AE7022E274920460FD1FFF775FD6C
:105120000028CFD12268136843F40073136023680A
:105130001B692B7023681B696B70E4E7FFF765FD43
:1051400002460028BED121680B6823F480630B60FF
:10515000236818491B692B7020464346FFF755FD0D
:105160000028AFD12268136843F4007313602368EA
:105170001B696B7023681B69AB70C4E73946204616
:10518000FFF743FD00289DD123682A461B6902F8DA
:10519000013B21684869731E40079BB2ADD50B697E
:1051A0006B70023EB6B2023580E700BF020010000D
:1051B000400001000400010090F835007047F0B590
:1051C00005684C68EB68D20184321544C3F30B4385
:1051D0001C446B6803F470436B6005680E68EB68F1
:1051E0000136C3F30B431544334443EA04436B6075
:1051F0000568CC68EB68C3F30A031C44AB189D68D0
:1052000005F470459D6005688B68EE680133C6F350
:105210000A061544334443EA0443AB60036813446D
:1052200000251C6924F007041C6103680C69134401
:105230001C61046891F8326091F83170D1F818C09F
:105240001444A369A561046891F8303043EA0C6303
:10525000144443EA072343EA0643A3610368134463
:105260005C6924F0FF045C6103684C6913445C6171
:1052700004681444E36923F4E06323F00703E36163
:105280000368D1E9074613443443DC6103681344DF
:105290009C6A9D6203684C6A13449C620B6963B309
:1052A000012B2CD09C1E022C2BD9072B14BF0124C0
:1052B000022403681344DD6A05F0E025DD6203681B
:1052C0009D18D1E900639B1B8E6A634303337443CB
:1052D00043EA0443EB6204681444236B23F4FF6342
:1052E00023F0070323630368C96A13441963016841
:1052F0008B5843F001038B50F0BD0424D9E70324FD
:10530000D7E70224D5E7704738B50446002875D0A2
:1053100090F8A13003F0FF021BB980F8A020FFF73E
:10532000F2FF2268022384F8A130936923F07043CE
:105330009361D4E901300343E068226803432069A4
:10534000916903430B43936121682D4A8B68134095
:105350008B60216860698B6843EA0043A06903435E
:105360008B602168CB681340CB602168E069CB6813
:1053700043EA0043206A0343CB6021680B69134072
:105380000B6121680B69606A43EA0043A06A03432A
:105390000B6121684B691A404A612268E16A5369CE
:1053A00043EA0143216B0B435361216894F83600B3
:1053B000CA6A94F8355002F07F42CA62226894F8B3
:1053C0003430D16A0B4343EA052343EA0043D362F6
:1053D0002268536B43F0040353632268536B43F01A
:1053E000020353632268936943F001039361002031
:1053F0000123C4F8A40084F8A13038BD0120FCE7E3
:1054000000F800F0704710B50446FFF7FBFF0020DE
:10541000C4F8A40084F8A00084F8A10010BDF8B579
:1054200090F8A030012B06468C4696464FF00200BD
:105430001DD0012786F8A07086F8A10034240D46FF
:1054400004FB02640FCD38340FC40FCD0FC40FCD51
:105450000FC42B682360304672466146FFF7AFFEEB
:10546000336800205F6286F8A17086F8A000F8BD5E
:1054700030B590F8A030012B4FF0020331D0012459
:1054800080F8A040342404FB020480F8A130A46C0E
:105490004CB3012C29D0A51E9D4202D9072C18BF60
:1054A00001230568D201843215445943EC6A24F083
:1054B000FF5424F4F814EC620D4C656A45F00105C4
:1054C000656205682A44D56A45EA0141D162636A8A
:1054D00043F001036362012380F8A130002380F8C8
:1054E000A030184630BD0423DBE70323D9E700BF13
:1054F000006801404B6A2DE9F0473BB1B2F1406FC3
:105500001FBF8B6A046803F1FF3323618B690C6A48
:10551000002B67D00568002C35D08B68EB61CC6917
:105520004B6A05688F69D1F820C0D1F83480D1F872
:1055300010E00E68D1E90BA9A4B144EA0A041443AF
:1055400044EA090444EA0804234343EA0E03CC680E
:1055500043EA0C0323433B434C69334343EA84430C
:105560006B612AE04AEA0904144344EA080423432D
:1055700043EA0E0343EA0C033B4333434E6943EAD9
:1055800086466E612CE04E69CC69D1F80090D1F866
:1055900024804F6BD1E90BECB604ACB11C4314432F
:1055A00044EA090444EA080444EA0E04CB6844EAE5
:1055B0000C043C431C4334436C61B2F1406F0FD088
:1055C00003684A689A610BE043EA0903134343EA1C
:1055D000080343EA0E0343EA0C033B4333436B6186
:1055E000BDE8F08744B303688C68DC61CC69D1F80E
:1055F000248005688E69D1F820C04B6BD1F810E08B
:10560000D1E90B796CB13C43144344EA09042343C8
:1056100043EA080343EA0E03CC6843EA0C0323433E
:105620009AE747EA09042243134343EA080343EA9B
:105630000E0343EA0C03A0E7CD694B6A7DB12B430F
:10564000CD6A046813432B430D6B2B434D6B2B43E7
:10565000CD682B434D6943EA85436361ADE7002B79
:10566000BED0CC6A0068234313430A6B13434A6BD2
:1056700013434A6943EA82434361B1E72DE9F041AC
:1056800004460F4616461D46FEF73AFF804622683E
:1056900093683B4214BF01230023B34201D1002091
:1056A0000AE06B1CF4D04DB9042384F83930E36B65
:1056B00043F00103E3630320BDE8F081FEF720FF20
:1056C000A0EB0800A842E2D9EEE7704738B50446DF
:1056D00000284BD090F83830012B49D0012380F8B6
:1056E000383090F8393003F0FF0233B980F83820B1
:1056F000FFF7EBFF41F2883323642168A2680B684F
:10570000013A23F4706343EA02230B60236C002206
:1057100020212046FFF7B2FF20BBE569E36821683E
:105720002B43256A0A682B43656822F07F4243EACF
:10573000056322F0D00213430B60D4E905322168DF
:10574000134322694D6843EA02430A4A2A4013433D
:105750004B602268136843F0010313600123E06388
:1057600084F83930002384F8383038BD0120FCE754
:105770000220FAE7FEF8E0FF704710B50446A0B13A
:1057800090F83830012B12D00268012380F83830AD
:10579000136823F001031360FFF7EEFF0020E063BE
:1057A00084F8390084F8380010BD0120FCE702209D
:1057B000FAE72DE9F84390F83830012B0446894682
:1057C000904631D0012380F8383090F83960F6B235
:1057D0009E424FF0020723D10022C263434680F865
:1057E00039702021FFF74AFF054698B9024649461D
:1057F0002046FFF77FFED9F824304BB943463246A6
:1058000039462046FFF73AFF054658B92368DF605E
:1058100084F83960002384F838302846BDE8F883DE
:105820003D46F7E70325F5E70225F6E72DE9F041C8
:10583000164690F83820012A04460F4698463FD075
:10584000012280F8382090F83950EDB2954233D1DA
:1058500042210022C26380F839102021FFF70EFF99
:1058600028BB236832689A62236872685A62236888
:10587000B268DA62216833690A6843F4800322F46B
:10588000400213430B60F368BB624FF0006239467D
:105890002046FFF72FFE43462A4608212046FFF701
:1058A000EDFE58B923680822DA6084F839500023E5
:1058B00084F83830BDE8F0810220F8E70320F6E7ED
:1058C0000220F7E7F8B590F83830012B04460E4671
:1058D000174630D0012380F8383090F83930012B4A
:1058E00027D100228223C263202180F83930036C43
:1058F000FFF7C4FE0546B8B922687968136823F03B
:1059000008030B4313607B68082B07D123683A68B0
:105910001A632268136843F4801313604FF04062E7
:1059200031462046FFF7E6FD002384F8383028464C
:10593000F8BD0225F8E70225F9E710B502681368FB
:1059400043F002031360036C012202210446FFF7B7
:1059500095FE024658B923680221D960236C2021A4
:105960002046FFF78BFE012384F8393010BD032059
:10597000FCE770B590F83830012B0446164648D045
:10598000012380F83830056890F83900C0B2984299
:105990003DD169B30023E363122384F839302B69C6
:1059A00001339BB263852B69616201339BB223850E
:1059B0006B6923F040636B61638D9BB26BB93346B7
:1059C000012202212046FFF759FE68B9236802220E
:1059D000DA602046FFF7B1FF07E0334601220421D9
:1059E0002046FFF74BFE38B10320012384F83930FD
:1059F000002384F8383070BD636A5A1C62621B78D9
:105A000085F82030638D013B9BB26385D4E702208B
:105A1000EEE70220EFE770B505681646AA6990F830
:105A20003830012B04464CD0012380F8383090F8F0
:105A30003900C0B2984242D1002931D00023E3633B
:105A4000222384F839302B6901339BB263862B699A
:105A5000E16201339BB223866B6923F0406343F01C
:105A600080636B6123689A61638E9BB26BB9334626
:105A7000012202212046FFF701FE68B923680222B5
:105A8000DA602046FFF759FF07E03346012206217E
:105A90002046FFF7F3FD38B10320012384F83930A5
:105AA000002384F8383070BDE36A5A1CE26295F82E
:105AB00020201A70638E013B9BB26386D4E70220DC
:105AC000EEE70220EFE7704770B50D460446002868
:105AD00000F09D80437C0BB9FFF7F5FF226803239C
