:020000040800F2
:10000000846A0020CD2F0008712F00087D2F000882
:10001000892F0008952F0008A12F00080278FEAF55
:10002000000000000000000000000000512D00084A
:10003000AD2F000800000000E92D0008311800086D
:10004000B92F00084130000853300008653000081F
:1000500077300008893000089B300008AD30000878
:10006000BF300008D1300008E3300008F530000848
:1000700007310008193100082B3100083D31000814
:100080004F310008613100087331000885310008E4
:1000900097310008A9310008BB310008CD310008B4
:1000A000DF310008F1310008033200081532000882
:1000B00027320008393200084B3200085D32000850
:1000C0006F3200088132000893320008A532000820
:1000D000B7320008C9320008DB320008ED320008F0
:1000E000FF320008113300082333000835330008BD
:1000F00047330008593300086B3300087D3300088C
:100100008F330008A1330008B3330008C53300085B
:10011000D7330008E9330008FB3300080D3400082A
:100120001F340008313400084334000855340008F7
:1001300067340008793400088B3400089D340008C7
:10014000AF340008C1340008D3340008E534000897
:10015000F7340008093500081B3500082D35000864
:100160003F35000851350008633500087535000833
:100170008735000899350008AB350008BD35000803
:10018000CF350008E1350008F335000805360008D2
:1001900017360008293600083B3600084D3600089F
:1001A000000000005F3600080116000871360008E4
:1001B00079140008704704387047704710B5102153
:1001C00004460EF0DBF9204610BDA0F10400F5E76F
:1001D00010B500228260044AC16002F10804203296
:1001E0000460426010BD00BF5CE8000870477047C3
:1001F0007047704700F0CAB810B5044600F004F923
:10020000014B2360204610BD8CE8000810B50A4B56
:100210000360044600F51E7007F00BFB074BC4F8A3
:10022000503204F5147009F0EBF904F5B87006F0DB
:100230006BFF204610BD00BFFCE800086802010803
:1002400010B50446FFF7E2FF204643F224310EF0DA
:1002500095F9204610BD000010B5034B036004461D
:10026000FFF7D4FF204610BD8CE8000810B5044607
:10027000FFF7F2FF204643F224310EF07FF92046CB
:1002800010BD00220260704770477047704710B57C
:100290004FF4A87104460EF071F9204610BD10B558
:1002A0000446D0F84C01FFF7EFFF2046BDE81040B0
:1002B00009F024BE10B50446D0F8340158B10368E3
:1002C000DB68984738B1D4F8340103689B689847D5
:1002D0000023C4F8343110BD10B5044600F06AFAAA
:1002E000014B2360204610BDC0E8000870B51E46D3
:1002F0000368BDF910505B6B04469847236831468C
:1003000020469A6B9047236829462046DB6BBDE860
:100310007040184781807047C180704770B503688E
:100320000446DB6A154698472368294620461B6B1E
:10033000BDE87040184701817047418170477047A0
:100340007047704770477047C38810B4D21A8388CB
:100350005DF8044BC91A036812B25B6D09B2184705
:100360004FF6FF7383814FF0FF3303621368C3615D
:10037000106070477047704790F825201AB190F8C8
:10038000242002B1186070470120704770470000B8
:10039000012180F825100B4901600022FF21828095
:1003A000C280028142818281C28102824282C0E98E
:1003B0000522C26180F8242080F82610826280F82D
:1003C0002C2070470006010800228280C280028132
:1003D00042818281C28102824282C0E90522C261D9
:1003E000826280F82C20074A026001214FF6FF72DA
:1003F00080F8251080F82410C285028680F832200B
:10040000704700BFD00601082DE9F04F054691B0B6
:10041000AA4600240AF068FDC74BEC634AF8403B4B
:100420005046FFF7B5FF05F1700318460293FFF73A
:10043000CBFF05F1A40318460393FFF7C5FF05F1B1
:10044000D80318460493FFF7BFFF05F586731846D7
:100450000593FFF7B9FF05F5A07305F5B8771846C2
:100460000A93FFF795FF384610AE06F069FE05F5D2
:1004700014730B934FF6FF7326F8043DFF223146A9
:1004800005F51E790B9808F013FC484607F04CFC64
:1004900005F55D7318460693FFF796FF05F56A7339
:1004A00018460793FFF790FF05F5777318460893F2
:1004B000FFF78AFF05F58263184609934FF4B37B73
:1004C000FFF782FF05F2444042F6E06109F0F8FAD6
:1004D0004FF44873CDF800B0224621465046FFF74E
:1004E00005FFEB22E021C3200AF058FF4FF495727C
:1004F000A86640F223110298FFF710FF4FF00108A1
:1005000032460EA90298ADF83840ADF83C8009F0AB
:1005100098F9039841224FF49471FFF7FFFE324699
:100520000EA90398ADF83840ADF83C8009F089F980
:1005300004989F224921FFF7F1FE32460EA9049844
:10054000ADF83840ADF83C8009F07BF90598A82259
:100550004FF4FC71FFF7E2FE32460EA90598ADF8A4
:100560003840ADF83C8009F06CF97A2300935A4684
:100570004FF4487321460A98FFF7B8FEF222C221D1
:10058000C0200AF00BFFA822C5F8680140F249110B
:100590003846FFF7C3FE68230093224621463846BB
:1005A00006F00DFE2346009421463846642206F0EC
:1005B000A9FE34221146384606F04CFD3846322159
:1005C00006F05CFD2146384606F062FD4FF4B47239
:1005D0002146384606F080FD4FF0020B3146384682
:1005E000ADF83CB006F084FE032331460B98ADF81D
:1005F0003C3008F045FB0B99384606F063FD384661
:100600003C2106F0F4FD48464FF4C3725121FFF738
:1006100085FE0523ADF834300623ADF838300423C9
:10062000ADF83C300EAA33460DA9484607F0D2FB80
:1006300040F26D23CDE90043594623464846162231
:1006400007F008FA64222146484607F069F9214676
:10065000484607F0EFF8224621460698FFF75EFE6F
:1006600032460EA90698ADF83840ADF83C8009F046
:10067000E8F82246079840F27621FFF74FFE32460F
:100680000EA90798ADF83840ADF83C8009F0D9F8CC
:10069000214608984FF49572FFF740FE32460EA9A6
:1006A0000898ADF83840ADF83C8009F0CAF80998D0
:1006B0004FF4957240F27621FFF730FE3246ADF8E6
:1006C00038400EA92C1D0998ADF83C8009F0B9F806
:1006D0005146204606F06CFF0299204606F068FF5E
:1006E0000399204606F064FF0499204606F060FF57
:1006F0000599204606F05CFF0A99204606F058FF4F
:100700003946204606F054FF4946204606F050FF81
:100710000699204606F04CFF0799204606F048FF50
:100720000899204606F044FF2046099906F040FF4C
:10073000284611B0BDE8F08FFCE80008704770470C
:1007400041607047704770470123037270477047DC
:1007500010B4C468416862100346E40701EB02006C
:100760009B6848BF8A585DF8044B48BFD358184768
:1007700043682BB183682BB9C06800F00100704753
:10078000184670470120704710B50C2104460DF043
:10079000F5FE204610BD10B54FF4A87104460DF0CB
:1007A000EDFE204610BD10B5102104460DF0E6FE0A
:1007B000204610BD70B5044616460D4609F0FAFCF9
:1007C0000B4AC4F8486114600A4A226000230A4AAE
:1007D000C4F83031C4F83431C4F83821C4F83C319D
:1007E000C4F84031C4F84431C4F84C51204670BDBF
:1007F000B862002048E9000830E90008064BC0F85C
:1008000040310023C0F8443100F59C73C0F83C012E
:10081000C0F83431704700BF610900082DE9F04786
:1008200007469068DDF820A0994603681B6A884651
:100830001446984743F22333984205D8424B434A23
:10084000C221434800F05AFA606803681B6A98475F
:100850000F2803D83F4B3D4AC321F2E7E068036805
:100860001B6A98470B2803D83B4B384AC421E8E75A
:1008700009F080FC09F084FCD9F8000010B103688D
:10088000DB689847D9F8000010B103681B689847E7
:10089000386810B103685B699847D8F8000010B158
:1008A00003685B689847386810B103681B6898470D
:1008B000D8F8000010B103689B689847E0680368A7
:1008C00000215B6A9847054620B10023436003720C
:1008D000224B0360A068036800215B6A98470646C4
:1008E00008B1FFF789FC6068036800215B6A9847DC
:1008F000044610B13146FFF76BFCC9F80050C8F848
:1009000000403E60ECB1231DCAF80030C4F808A0D6
:100910003368F4633046DB689847236820461B68D9
:100920009847294630460AF05DFC2B6828461B692B
:10093000984709F01FFC03689B6A98472046BDE86A
:10094000F0872346E0E700BF9CE90008A3EB00081E
:100950002AEA00085DEA000800EB000884E90008C4
:1009600007B5D0F84C310093D0F84821044B00F57E
:1009700098710448FFF752FF03B05DF804FB00BF15
:10098000B4620020B06200207047000030B5144D02
:100990002C78BFF35B8F14F0010489B01DD1284679
:1009A00000F093F9C8B13F2306930E4B05930E4B0D
:1009B0000E490794CDE9034304230122CDE9004306
:1009C00002940A230A480AF02FFC284600F07EF918
:1009D000084A094906480DF0CBFD054809B030BD6D
:1009E000E8080020D01201084C140108381401084E
:1009F000F4080020800900208909000830B5144D52
:100A00002C78BFF35B8F14F0010489B01DD1284608
:100A100000F05BF9C8B13F2306930E4B05930E4BD4
:100A20000E490794CDE9034304230122CDE9004395
:100A3000029414230A480AF0F7FB284600F046F90E
:100A4000084A094906480DF093FD054809B030BD34
:100A5000EC08002048140108EC1301087414010884
:100A600014090020800900208909000830B5144DC0
:100A70002C78BFF35B8F14F0010489B01DD1284698
:100A800000F023F9C8B13F2306930E4B05930E4B9C
:100A90000E490794CDE9034304230122CDE9004325
:100AA000029428230A480AF0BFFB284600F00EF9FA
:100AB000084A094906480DF05BFD054809B030BDFC
:100AC000F008002034140108D4120108641401084D
:100AD00034090020800900208909000810B5202170
:100AE00004460DF04BFD204610BD7047012906D08D
:100AF00003D3022905D000207047FFF77FBFFFF71F
:100B0000B5BFFFF743BF10B5042104460DF036FD15
:100B1000204610BD00487047BCEC00080720704715
:100B2000004870478414010801207047004870474E
:100B30005409002010B5FFF761FF044C2060FFF757
:100B400095FF6060FFF722FFA06010BD54090020F0
:100B500038B50A4B18800A4B00221A60FFF7E0FFF5
:100B60000546FFF7E3FF0446FFF7DEFF054B1D6078
:100B7000054B1C60054B188038BD00BF7009002074
:100B800074090020BC620020C4620020C062002002
:100B9000014B00221A6070477409002008B5054B0C
:100BA00001461B6800B10121184607F023FD012012
:100BB00008BD00BF3C620020032208B500210120CF
:100BC00001F0BDFA074A106020B100231A46194609
:100BD00001F0D6FA01210022084601F0B0FA024BDA
:100BE000186008BD780900207C0900200348002314
:100BF0004FF0FF321946006801F087BB78090020EA
:100C0000034800231A461946006801F0B9BA00BF2C
:100C100078090020034800231A461946006801F0AD
:100C200074BB00BF7809002007B5094802AA002359
:100C300042F8043D1946006801F022FB019B1BB1FC
:100C4000044B4FF080521A6003B05DF804FB00BF04
:100C50007809002004ED00E007B5094B186860B181
:100C600002AA002342F8043D064901F009FB019B5A
:100C70001BB1054B4FF080521A6003B05DF804FBC6
:100C80007C0900200800002004ED00E070B5084D4C
:100C9000084C00231A462946206801F036FB2946F5
:100CA000206800234FF0FF32BDE8704001F02DBBFB
:100CB000080000207C090020FEE7FEE70149002033
:100CC00001F026BE9D0B0008704770477047FEE795
:100CD000084910F0030318BFC3F104030A6818BFE2
:100CE000C0181318044883423ABF10460B604FF0F7
:100CF000FF3070470C0000207C660020FEE70000FB
:100D0000024B18680368DB68184700BF3C6200208C
:100D10001FB500F09BFD01F047F800230322CDE949
:100D20000233019300920449044840F2B63201F0C4
:100D3000A9FB01F08DFCFEE748ED0008010D00085D
:100D4000704738B5044602F039FE054602F03CFE15
:100D500081B2A8B203F08EF908B90123237138BD1E
:100D600010B5082104460DF009FC204610BD7FB5E2
:100D700004790E4615465CB101A803F0A7F99DF869
:100D8000043043B1BDF806303360BDF80A302B6043
:100D9000204604B070BD1C46FAE703681B6C184778
:100DA00003685B6A1847704770470000034A044BAA
:100DB00013601A6842F400721A60704784090020B8
:100DC00000B00240034B1B78002B40F2EF1018BF1D
:100DD00000207047C40900202DE9F843414BB1F8C9
:100DE0000C801B68CF8998680E7E03681B6A0D46CD
:100DF000984710282A7E6B6971D103F01F041F21C8
:100E0000C4EB042494FBF1F444EA0262C3F3C42467
:100E1000C4EB0424C3F3451394FBF1F442EA044405
:100E2000C3EB03233F2293FBF2F344EA0322DFF8F0
:100E3000C0C02D4C4FF0806ECCF888E0022384F8BF
:100E4000393023684FF00009C3F8009023683F2130
:100E50009960C3F81090C3F81890C3F81C90C3F8B9
:100E60002490C3F83490A968D9602049C3F8109041
:100E700041EA066122F07F4207EB0847D9611A6216
:100E80005F64AA685A616A8A1028A2EB08029A6114
:100E90000CBF022101214FF07F4292FAA2F2B2FA76
:100EA00082F2D2B296400E435E625A69DA639A6960
:100EB0001A645A6A5A63CCF808E01A6822F440327D
:100EC00042F400321A602268136843F40C53136032
:100ED0002268136843F001031360BDE8F88343EA16
:100EE0000262A4E73C62002084090020090001009E
:100EF00000E100E010B540F6A82104460DF03EFBED
:100F0000204610BD2DE9F3470E68042E80460C469E
:100F100000F09F80202E00F09C80A6F140025742F6
:100F20005741802E00F09780A6F580735E425E41A7
:100F30005B4B1B68986803681B6A98472368402BC3
:100F4000824600F09F8000F28880042B00F093809E
:100F5000202B00F09780BAF1100F14BF4FF0010959
:100F60004FF002090025E389A8F8A43ADFF8388198
:100F70004C4B4FF08062C3F88820404603F089FD57
:100F8000A289638AC8F8045045469B1AEB60C5F8ED
:100F90002C90238AA289BAF1100FA3EB020314BF8D
:100FA0004FF001084FF00208AB622846C5F80880F0
:100FB00003F040FD0FB9002E34D0237EFF2B1FBF5E
:100FC00002232B63237E6B6304BF00232B6306B3D2
:100FD000237E6269BAF1100F4FEA036155D102F026
:100FE0001F031F20C3EB032393FBF0F30B43C2F358
:100FF000C421C1EB0121C2F3451291FBF0F143EA98
:101000000143C2EB02223F2192FBF1F243EA0223A9
:101010006B63638AA28924489B1AC5E906380021BC
:1010200003F0A8FD0121204803F0A4FD1D4B4FF063
:1010300080629A60E289A38907B94EB3CDE9003294
:10104000A368616818481A4603F060FD02B0BDE865
:10105000F087012768E701266AE7802B06D0B3F501
:10106000807F7FF478AF4FF0090901E04FF00A0963
:101070004FF4003577E7102814BF4FF001094FF007
:101080000209F5E74FF00009F2E70A436A63C0E797
:1010900000920548D4E9011203F009FDD6E700BF2C
:1010A0003C62002000E100E0840900202DE9F041CD
:1010B000374B1B680646986803680C461B6A8AB063
:1010C0009847E389A6F8A43A236810280CBF4FF08C
:1010D00002084FF00108082B07460ED10FCC03ADD4
:1010E0000FC594E80700336885E807005B6C03A927
:1010F000304698470AB0BDE8F081264D264B4FF0A8
:101100008062C3F88820284603F0C3FC4FF44033C4
:10111000A289C5E90138638AC5F82C809B1AEB6067
:101120000023AB62102F6369217E2DD103F01F02D3
:10113000C2EB02221F2092FBF0F5C3F3C42245EA62
:101140000165C2EB0222C3F3451392FBF0F245EABC
:101150000245C3EB03233F2293FBF2F345EA032549
:1011600001210C4803F006FD0B4B0A484FF080624A
:101170009A6003F05FFCE2890092A389A2680548A7
:10118000294603F094FCB5E743EA0165E8E700BFB0
:101190003C6200208409002000E100E070B50446B4
:1011A00026460C3000250F4B60602572657246F8AC
:1011B000203B6022314607F047FB04F52A62756147
:1011C0001C36B242FBD194F8A72AC4F8A05A65F3A2
:1011D0000002A4F8A45A84F8A65A84F8A72A204644
:1011E00070BD00BF70ED0008012380F8641080F826
:1011F00065307047406803681B68184700207047D7
:10120000436B0BB10846184770474FF6FF707047A5
:10121000014B1868704700BFC8090020034B7022BB
:1012200083F85A2383F85C23704700BF00E100E095
:10123000044B4FF08062C3F888204FF08052C3F80F
:101240008820704700E100E0034B4FF080629A6015
:101250004FF080529A60704700E100E07047000054
:1012600008B531B90A4B0B4A0B484FF44371FFF7ED
:1012700045FDC0E90E1200320849036418BF01227F
:101280000A700033064A18BF0123137008BD00BF5F
:10129000D5ED00083CEF00080DEE00083A62002092
:1012A0003B62002008B500F045FC0A4B1B68022297
:1012B000C3F810240122C3F81024D3F8082442F004
:1012C0000102C3F80824D3F8082442F00202C3F84C
:1012D000082408BDCC630020024B00221A7006F0DF
:1012E000D3BD00BF1000002010B5044606F0D8FDA5
:1012F00094F8473013B1024B01221A7010BD00BFA1
:101300001000002010B5044607F05AF92368204663
:10131000D3F88430BDE81040184710B56821044662
:101320000DF02CF9204610BD30B590F8644090F8CF
:101330003010104B8C421A780DD05AB90E4A0F4912
:101340000F4814880F4D0C8001881180298004807B
:1013500001221A7030BD002AFCD00948074A0188D2
:101360001180054A074D14882C80118004800022CA
:10137000EFE700BF346200203062002036620020B8
:1013800032620020386200200D4B1B78B3B10D4B48
:101390000D481B68D3F8042422F00802C3F8042483
:1013A0000A4A9162426A42F001024262084A1160AE
:1013B000D3F8042442F00802C3F80424704700BFA5
:1013C000D0090020CC6300200068014084680140FF
:1013D000C8090020F8B51C4C9DF8185023701B4C10
:1013E00021601B4C2280541EA6B21F2E09D8012456
:1013F000B44014F0803F174F174E09D114F00B0F73
:1014000017D1164B164A17484FF43971FFF776FC7F
:101410003F883488D2087C43624381637BB11144A6
:10142000C16375B1114401640F4A13700F4B1D70F5
:10143000F8BD3C8862430732D2103488ECE7C363BE
:10144000EFE70564F0E700BFD0090020C8090020DD
:10145000D20900203062002032620020B8ED00087E
:10146000E8EE00080DEE00083A6200203B62002022
:1014700003689B691847000070B5554D2B68D3F879
:101480000C24D10720D50122524CC3F8102400208F
:1014900000F01EFD226892F85630013382F8563073
:1014A000FFF7DAFB4C4B4D4A1B7823B9216811B189
:1014B000107881F8460012781AB1494E3178002927
:1014C00033D0002000F014FD2B68D3F80C249207D1
:1014D00059D50222C3F81024424B434D1968434B9F
:1014E00028681B88424C434A182B4DD1D4F8043449
:1014F00023F00803C4F8043470BB3F4B1B885B081F
:1015000003EB43030B4493623C4B01265E6200F005
:1015100053FBD4F8043443F00803C4F804342E60B9
:101520002B48BDE8704004F0E0BD1BB1206808B155
:1015300007F046F82C4B002018602C4B1B88182B0A
:1015400007D100F027FB224804F0CFFD01233370C0
:10155000BAE700F00BFBF6E7284B916201225A62D2
:1015600000F018FBD4F8043443F00803C4F8043442
:10157000002000F0BDFC1A4B00221A70154B1868B1
:1015800008B1FFF775FF70BD01302860D4F804344E
:10159000032823F00803C4F8043411DC164B1B881D
:1015A0005B0800FB03139362144B01225A6200F0A4
:1015B000DDFAD4F8043443F00803C4F80434AFE788
:1015C0000E4B916201225A62002000F0CFFAC9E767
:1015D000CC6300203C620020D009002010000020D5
:1015E000D4090020C8090020CC090020D20900201D
:1015F000006C0140846801403662002000680140B0
:10160000064B5A68920707D502229A60044B1B6862
:10161000586803685B691847704700BF00B0024014
:101620003C6200204068704741607047054A13687B
:1016300043F080731360044A136843F0010313609E
:10164000704700BFFCED00E0001000E0521A02EB12
:101650005302B2FBF3F07047014B1868704700BFAC
:10166000041000E0704710B50C2104460CF086FF12
:10167000204610BD10B5036804461B6931B1984778
:10168000A26863689B1A1844606010BD9847A06008
:10169000FBE770477047000008B500F02CF8024BDC
:1016A00000221A6008BD00BFD5090020F8B50F461A
:1016B00000F025F80B4A937855781478D370C6B2A9
:1016C00013F001009570547016700AD015F00100E7
:1016D00007D014F0010004D0F3075ABF012038707E
:1016E0000020F8BDD509002010B5042104460CF0F7
:1016F00045FF204610BD0021084602F0A1B8002099
:1017000002F0D8B87047012070470C2070470C23B6
:1017100003FB0100083070470C2303FB0100083075
:1017200070470120704743F22430704743F224335E
:1017300003FB01000830704743F2243303FB010030
:1017400008307047012070471020704700EB0110EF
:101750000830704700EB0110083070470846FFF76B
:101760004DB8000010B5034B0360044605F066FC5D
:10177000204610BD40F0000810B50446FFF7F2FF08
:10178000204614210CF0FAFE204610BD10B5034B84
:101790000360044605F052FC204610BD0CF0000822
:1017A00010B50446FFF7F2FF204643F22C310CF04F
:1017B000E5FE204610BD000010B5034B0360044653
:1017C00005F03CFC204610BDD8EF000810B50446DB
:1017D000FFF7F2FF204618210CF0D0FE204610BD86
:1017E00010B5094B0360044600F54D501830FFF763
:1017F000B9FF04F12C00FFF7C9FF04F11400FFF753
:10180000DBFF204610BD00BF74F0000810B5044691
:10181000FFF7E6FF20464FF453510CF0AFFE204691
:1018200010BD10B5042104460CF0A8FE204610BDE2
:1018300008B502F0ADFF044B1B781BB1BDE80840B2
:1018400001F0FABA08BD00BF784A00202DE9F04F38
:10185000DFF8DC829BB002F081FFD8F8403043F023
:101860008053C8F84030D8F8403003F080530693D6
:10187000069BA34B1A6842F440421A601B6803F4AB
:10188000404307934FF0020A079B4FF48003CDE9D2
:1018900013A34FF4B4734FF00109CDE9163A4FF09A
:1018A000070B062308250DA8CDE90D99CDE918B33E
:1018B000159505F089F800B1FEE704F0A9FC00B128
:1018C000FEE70F23CDE9083A0A904FF4A0534FF4F6
:1018D0008056052108A8CDE90B3604F0E5FC044646
:1018E00000B1FEE702F088FBD8F83030854F43F4B2
:1018F0008053C8F83030D8F8303003F48053059363
:10190000059B02F0C1F902F039F95B2002F0AEFF4D
:1019100002F024F802F07EF87B4840F2771303616E
:1019200003230393C3610560846204F029FE774AB0
:101930003A60384604F0C1FA7549C7F80C904FF088
:10194000040B7D223846C1E9002A8C60C7F808B034
:1019500004F00AFA6F49704D0C604FF4C870102201
:10196000C1E9020205223846C1E90544CC610C6197
:10197000C1E90844C1F828904A6004F0CDFA4FF458
:10198000807C4FF40072C5E900C24FF4806E4FF4C2
:1019900000624FF40053C5E902E24FF48042C5E90A
:1019A00005324FF480314FF40032C5E907122E6141
:1019B0004FF40022594E4FF480202946C5E9090210
:1019C000384604F02FFB304603F06DFE544AC6F84B
:1019D00020A04FF4C97CC6E900244FF4F172C6E997
:1019E00009C240F2931E40F2E312C6E90BE2C6E9D7
:1019F0000449C6E9069AC6E90244B48686F8364028
:101A0000304603F0D1FD384604F058FB49462046E5
:101A100002F052FC29463846C5E90044C5E90244B3
:101A2000C5E90444C5E90644C5E90844AC6204F0CC
:101A3000F9FA5946384604F02DFBD8F830203948D9
:101A400042F40072C8F83020D8F83020039B10937D
:101A500002F400720DA90D230892089A1193CDE9A2
:101A60000DBA0F9403F0F8F8384604F03EFB0D94DD
:101A70000F9401F0A9FF4FF040431693FF23CDE9E7
:101A800012341090ADF864408DF8664001F09CFF70
:101A9000189001F093FF0723CDF8449040084FF4CD
:101AA000C069CDE914930E9001F088FF40082246EA
:101AB0000DA91790304603F002FE204601F08AFF80
:101AC000194B01932A23009321465B46392238465D
:101AD00004F048FB154B01932B2321460093392238
:101AE0005B46384604F03EFB01F068FF22460146A3
:101AF000304603F00DFE00F00BFA1BB0BDE8F08F8E
:101B000000700040CC6300206C3F0020006C01405E
:101B10006C4A00200C3F0020383F00202463002046
:101B200000680140002402401E0000203600002012
:101B30000038024037B50B4A0B4C022315251370B1
:101B4000557001924422009200213922204604F06F
:101B500009FB0021009135232A46204604F0D7FADC
:101B600003B030BD694A0020CC63002007B5074BA5
:101B700003EB80002A2301900093392204230021E3
:101B8000034804F0EFFA03B05DF804FB26000020E0
:101B9000CC63002007B5064B01932A23009339221A
:101BA00004230021034804F0DDFA03B05DF804FBD0
:101BB0001E000020CC63002007B5064B01932A23AA
:101BC0000093392204230021034804F0CBFA03B028
:101BD0005DF804FB22000020CC6300202DE9F743D0
:101BE0005B4E3578BFF35B8F15F001058046894663
:101BF00017461C464CD13046FFF767F8002847D0FF
:101C0000A3B2544CBDF82800A584012284F84520D5
:101C100084F8462002F1807262654F4A84F82650AB
:101C200014604E4AA56213804D4AA58510804D4A26
:101C300084F8445015704C4A84F858508342C4E9E3
:101C40000189C4E90375C4E90555C4E90755C4E928
:101C50000D55C4E90F5584F8595084F85A5084F84A
:101C60005B5084F85C50256684F8655013803F4AC9
:101C70002CBF00230123108084F8303030463C4BC9
:101C80002360FFF723F83B4A3B4920460CF070FCE9
:101C900030483A4F06F0A4FAFEF73CFF0446FEF740
:101CA0003DFF0D9B00930146DDE90B23204609F023
:101CB00063FC334B334A1A600020FEF749FF324879
:101CC00009F0C4FB3B78BFF35B8FDB0736D43846A3
:101CD000FEF7FBFF002831D02C4E2D4C2D4BF4602D
:101CE00004F1140806F1140006F12C057060B560CB
:101CF000C6F81080336005F0A3F9274B73612846BE
:101D000005F09EF9254BF362204605F099F9244B26
:101D10002360324604F5B2714046FEF7DDFA04F561
:101D2000B270FEF7AEFA4046FEF768FD3846FEF7A1
:101D3000CDFF104A1B4930460CF01AFC08F01AFA85
:101D40000146044806F08EF9024803B0BDE8F0836E
:101D5000DC090020E00900203C6200203062002005
:101D60003262002034620020366200203862002097
:101D700048EE0008800900205D120008480A002093
:101D8000C8620020684A0020140000204C0A00208D
:101D9000A43D002074F00008D8EF00080CF0000803
:101DA00040F00008E1170008F0B585B000254FF4B9
:101DB000F073CDE9025501950093144A1449154872
:101DC0004FF44873FFF70AFF134B01261E70134BA5
:101DD0001A880368009604465F6F4FF040412B4617
:101DE000B8470F4B84F85850636184F8465002237B
:101DF0000C4D84F85430282384F845302846FFF7EA
:101E000015FC256184F85C6005B0F0BDA83F00209A
:101E100018000020B03F0020784A00201C0000205D
:101E2000584A00205C4A002038B5194C194D1A490F
:101E30001A4822460CF09CFB2846FFF7AFF92246D1
:101E4000174928460CF094FB1648174B17490360B6
:101E50000025224605710CF08BFB1548154B45609B
:101E6000224685601449154D03600CF081FB224623
:101E7000134914480CF07CFB134B2B602846FFF7EA
:101E80000BFC224628461149BDE838400CF070BBD7
:101E900080090020B03F0020EB0A00081400002059
:101EA000A90D0008A83F002058ED0008410D0008CA
:101EB0005C4A002094EF000865160008584A00208C
:101EC0000517000818000020BCEF00089516000850
:101ED000064A0121115408B901F0A2BC0128FBD027
:101EE0000228F9D00328F7D0704700BF794A0020B4
:101EF000064A0021115408B901F082BC0128FBD028
:101F00000228F9D00328F7D0704700BF794A002093
:101F100008B5002001F026FC012001F023FC02207E
:101F200001F020FC032001F01DFC0020FFF7E0FF82
:101F30000120FFF7DDFF0220FFF7DAFF0320BDE8F5
:101F40000840FFF7D5BF0000034B1B5C0BB1FFF748
:101F5000CFBFFFF7BDBF00BF794A002000F10803E3
:101F60004FF0FF324360C0E90223036100230360A6
:101F7000704700230361704743684B609A688A602A
:101F80009A68516099600861036801330360704783
:101F90000A68531C30B50AD103695A684A609160D7
:101FA0008B605960086103680133036030BD00F144
:101FB00008035C6825689542EFD82346F9E7D0E925
:101FC00001329A60D0E901235A6003695A6882425B
:101FD00004BF82685A6000220261186801381860E4
:101FE000704738B51546026C04464AB905681DB9F4
:101FF000406800F0E1FD6560A36B0133A36338BD69
:1020000065B980680CF0D5FAA368226C1344626845
:10201000A3609342F0D32368A360EDE7C0680CF09F
:10202000C8FA236CE26821685B421A448A42E26083
:102030003EBF62689B18E360022DDDD1A36B002BCD
:10204000DAD0A36B013BA363D6E7034630B41C6828
:1020500008465CB1D9681A6C5D681144A942D96020
:1020600028BFDC60D96830BC0CF0A3BA30BC704724
:1020700038B5044600F09CFE04F12405A36C002B47
:1020800012DC4FF0FF33A36400F0A4FE00F090FEDA
:1020900004F11005636C002B13DC4FF0FF33636415
:1020A000BDE8384000F096BE636A002BE9D02846B0
:1020B00000F0CAFC08B100F03FFDA36C013BA36433
:1020C000DCE72369002BE8D0284600F0BDFC08B10E
:1020D00000F032FD636C013B6364DBE738B50D460D
:1020E000044610B900F04EFEFEE700F061FED4E9B0
:1020F0000F302268A2604343D1181B1A1344616059
:10210000E36000214FF0FF33A1636364A3646DB902
:1021100023693BB104F1100000F096FC012801D1C5
:1021200000F024FE00F056FE012038BD04F110003E
:10213000FFF714FF04F12400FFF710FFF2E7F8B5F2
:102140000E461746054670B1502000F059FD044672
:1021500048B106FB05F0013000F052FD206028B9BF
:10216000204600F0ADFD00F00DFEFEE7C4E90F567D
:1021700001212046FFF7B2FF84F84D702046F8BDDC
:102180002DE9F04385B0884601921E46044610B9F9
:1021900000F0F8FDFEE721B9036C13B100F0F2FD89
:1021A000FEE7022E05D1E36B012B02D000F0EAFD21
:1021B000FEE700274FF000093FE0019D1DB900F048
:1021C00009FE002053E017B902A800F077FC00F0E8
:1021D00001FE00F067FA00F0EBFD636C013308BF0D
:1021E000C4F84490A36C013308BFC4F8489000F0D1
:1021F000F1FD01A902A800F071FC00283AD100F01D
:10220000D7FDA26BE36B9A420FD100F0E3FD019979
:1022100004F1100000F0F2FB2046FFF729FF00F068
:10222000DFFA48B900F0A2FD06E000F0D3FD204639
:10223000FFF71EFF00F0D4FA012700F0B9FDA26BF2
:10224000E36B9A4201D3022EB7D132464146204673
:10225000FFF7C7FE636A3BB104F1240000F0F4FB12
:10226000012801D100F082FD00F0B4FD012005B08D
:10227000BDE8F0832046FFF7FBFE00F0B1FAA0E7CF
:102280002DE9F041884616461D46044610B900F077
:1022900079FDFEE721B9036C13B100F073FDFEE791
:1022A000022D05D1E36B012B02D000F06BFDFEE7A0
:1022B00000F03CFE00F066FDA26BE36B9A4207461D
:1022C00001D3022D1FD12A4641462046FFF789FE41
:1022D000A36C013313D1636A0BB9012409E004F143
:1022E000240000F0B1FB0028F7D0002EF5D0012427
:1022F0003460384600F06AFD2046BDE8F081A36CEA
:102300000133A364E9E70024F3E72DE9F04385B046
:102310000E4601929946044610B900F033FDFEE7DF
:1023200021B9036C33B100F02DFDFEE700274FF01B
:10233000000853E00F46FAE7636AE560002B6CD0B3
:1023400004F1240000F080FB002866D063E0019DCA
:102350001DB900F03FFD002062E017B902A800F0AF
:10236000ADFB00F037FD00F09DF900F021FD636C3E
:10237000013308BFC4F84480A36C013308BFC4F81C
:10238000488000F027FD01A902A800F0A7FB002863
:1023900049D100F00DFDA36BC3B900F01BFD23680C
:1023A00033B900F005FD606800F0D2FB00F012FDCB
:1023B000019904F1240000F021FB2046FFF758FEAC
:1023C00000F00EFA48B900F0D1FC06E000F002FD82
:1023D0002046FFF74DFE00F003FA012700F0E8FC6D
:1023E000A36B002BB3D031462046E568FFF72DFEE6
:1023F000B9F1000FA0D1A36B013BA363236813B90C
:1024000000F0A0FB606023693BB104F1100000F014
:102410001BFB012801D100F0A9FC00F0DBFC01202E
:1024200005B0BDE8F0832046FFF722FE00F0D8F9A2
:1024300091E7000010B50E4B1A6850600D4A126803
:102440008242044607D90C4A10681968BDE810405A
:102450000431FFF79DBD094A106819680431FFF780
:1024600097FD074B1A68A24288BF1C6010BD00BFD1
:10247000804A0020744B0020884A0020844A0020B3
:102480003C0000202DE9F84FDDF830B00F4615462E
:102490009A46DDE90A68814610B900F073FCFEE750
:1024A000042E02D900F06EFCFEE7502000F0A8FBDD
:1024B000044670B1BBF1000F03D1A80000F0A0FBEF
:1024C0008346C4F830B0BBF1000F06D1204600F0BF
:1024D000F7FB4FF0FF30BDE8F88FAD002A46A5218D
:1024E00058460CF071F8236B043D1D4425F0070598
:1024F0007B1E04F13402093713F9011F02F8011B96
:1025000093F9001009B1BB42F6D14FF0000B271D23
:10251000384684F83DB0E662A664FFF72AFD04F170
:102520001800FFF726FDC6F105032461A36164626C
:10253000C4F84CB052464946284600F0F7FB2060EC
:10254000B8F1000F01D0C8F8004000F031FC2F4B6B
:102550002F4D1A68DFF8EC8001321A602A68002AD1
:102560004AD12C601B68012B27D12A48DFF8D8A05C
:10257000DFF8D890FFF7F2FC2748FFF7EFFC274879
:10258000FFF7ECFC2648FFF7E9FC2648FFF7E6FCDE
:102590005046FFF7E3FC4846FFF7E0FC2248FFF710
:1025A000DDFC2248FFF7DAFC2148FFF7D7FC214B7E
:1025B000C3F800A0204BC3F80090204A13680133F1
:1025C00013601F4A23641168E36A8B4288BF13605B
:1025D000104A142000FB03203946FFF7CDFC00F021
:1025E000F9FBD8F800302BB12B68DB6AB34201D27B
:1025F00000F0BCFB01206EE7D8F80030002BDCD1E6
:102600002B68DB6AB34298BF2C60D6E7F04A002003
:10261000804A00208C4A0020A04A0020B44A0020B2
:10262000C84A0020DC4A0020344B0020604B0020C8
:102630004C4B0020844A0020884A0020FC4A00209D
:10264000044B0020484B0020084B00201C4B00206E
:1026500030B5002485B0CDE90244CDE900442346DD
:1026600040220C490C48FFF70DFF012805460AD10E
:1026700000F088FB094B1D60094B1C6005B0BDE8EC
:10268000304000F0FFBB10B900F07CFBFEE705B066
:1026900030BD00BF94F00008A9280008484B002076
:1026A000744B0020024A136801331360704700BF67
:1026B000F84A00202DE9F84F3E4B1B68002B71D1E2
:1026C0003D4B1A6801321A601D68B5B93B4B1A6858
:1026D000126812B100F056FBFEE7394A196810681B
:1026E0001860116037490A6801320A601A68116877
:1026F000354AD9B94FF0FF331360334C334F236859
:10270000AB424FF0000B16D93A68314BD16A142214
:102710004A439A58022A28BF4FF0010B2D4A1268EB
:10272000002A0CBF58460120BDE8F88F1B68DB6803
:10273000DB685B68E0E7DFF88490DFF8A0A0D9F8F9
:102740000020126842B1D9F80020D268D6687168BA
:102750008D4205D22160D7E74FF0FF322260D3E7E8
:1027600006F104084046FFF72AFCB16A19B106F1E8
:102770001800FFF724FCF06ADAF80010144B8842C6
:102780004FF0140288BFCAF80000414602FB003037
:10279000FFF7F2FB3868F16AC26A914228BF4FF036
:1027A000010BCCE70C4A1368013313604FF0000BA8
:1027B000B4E700BFF84A0020744B0020844A002090
:1027C000884A0020304B00203C000020804A002036
:1027D0008C4A0020784B0020F44A0020044B002053
:1027E0002DE9F041284C236813B900F0CBFAFEE73D
:1027F00000F0DEFA2368013B236023682BB100243C
:1028000000F0E8FA2046BDE8F081204B1B68002B61
:10281000F5D01F4D1F4EDFF88C802B686BB91E4C16
:1028200023681BB11D4D012623682BBB1B4B1C6865
:10283000012CE4D100F09AFAE2E7EB68DC68271D8E
:1028400004F11800FFF7BBFB3846FFF7B8FBE36A5B
:1028500032681420934200FB0380394688BF3360FE
:10286000FFF78AFB0E4BE26A1B68DB6A9A42D4D3FD
:102870000A4B01221A60CEE7FFF71CFF00B12E6061
:102880002368013B2360CFE7F84A0020F04A00208C
:10289000344B0020044B0020F44A0020784B0020E9
:1028A000804A00208C4A002008B5154E154C23683C
:1028B00043B9154B1B68012B01D900F057FAFEF7FD
:1028C000FDF9F3E7FFF7EEFE3568FFF789FF002D0E
:1028D000EDD000F06DFAF368DD68281DFFF76FFB9F
:1028E0000A4A1368013B13602368013B236000F030
:1028F00071FA286B00F0E4F9284600F0E1F9D6E718
:10290000604B0020004B00208C4A0020F04A002041
:1029100038B50D46044608B9044B1C6800F048FA67
:10292000E564BDE8384000F055BA00BF804A002099
:1029300008B9044B1868C36C0BB108461847184611
:10294000704700BF804A002070B5264B1A68264B9E
:1029500012B101221A6070BD244C1A602068012156
:10296000FFF7E6FF2268236812681B6B9A4204D8BF
:10297000206821683431FEF79FF923681C49186BE1
:1029800014220BF007FE20B1206821683431FEF7D5
:1029900093F9184A184914231646086858431058E2
:1029A000B8B109684B43D018083345686D68456075
:1029B00013449D4204BF6B684360142303FB016111
:1029C0004B68DB68236020680021BDE87040FFF79A
:1029D000AFBF086810B900F0D5F9FEE70868013804
:1029E0000860DAE7F84A0020784B0020804A00208F
:1029F00080F000088C4A0020044B002038B50D46BA
:102A000010B900F0BFF9FEE70C4C21681831FFF750
:102A1000BFFA20680430FFF7D2FA6B1C06D1216898
:102A200007480431BDE83840FFF7A6BA054B1868DF
:102A30002844BDE83840FFF7FDBC00BF804A0020B5
:102A40004C4B0020744B002038B5C368DC6814B9C7
:102A500000F098F9FEE704F118052846FFF7AFFAF1
:102A6000104B1B68DBB9251D2846FFF7A8FA0E4A54
:102A7000E36A11688B4288BF13600C4A1420294610
:102A800000FB0320FFF778FA094BE26A1B68DB6A58
:102A90009A4223BF074B01201860002038BD294609
:102AA0000548EFE7F84A0020044B00208C4A00203C
:102AB000804A0020784B0020344B002008B510B924
:102AC00000F060F9FEE7034B1B680360024B1B68D4
:102AD000436008BD304B0020744B002070B50D469C
:102AE000044610B900F04EF9FEE711B900F04AF9BA
:102AF000FEE700F05DF90E4B19682B685A1C10D0E8
:102B00000C4A1068D4E90062864201D091420DD28D
:102B1000881A83420AD95B1A13442B602046FFF7B8
:102B2000CDFF002400F056F9204670BD0124F9E7DE
:102B3000744B0020304B0020014B01221A6070477B
:102B4000784B0020014B1868704700BF804A002076
:102B5000F8B5044638B3154EC36A3268D26A934258
:102B600021D23268124DD26AC2F10502826114226A
:102B700002FB035342699A4212D1071D3846FFF700
:102B80001EFA33680B4ADB6A1168E3628B420BD88A
:102B90001420394600FB0350BDE8F840FFF7ECB9BC
:102BA0003368DB6AC362F8BD1360F1E7804A002036
:102BB0008C4A0020044B002038B50446D0B1C26ACC
:102BC000836C9A4216D0051D2846FFF7F8F9A36CCE
:102BD000E362C3F10502A261074A11688B4288BF14
:102BE0001360064A1420294600FB0320BDE8384044
:102BF000FFF7C2B938BD00BF044B00208C4A00204B
:102C000070B50446FFF74EFD2848016871B9284B9E
:102C1000284A23F00703C2E90031274A41F27455DC
:102C2000C2E90015C3E90025012303602CB1083473
:102C300063071CBF24F007040834621E41F272537C
:102C40009A4205D9FFF7CCFDFEF737F8002526E0BC
:102C5000184A13685968A14201D2196809BB16497C
:102C60008B42EFD01968156811605968091B10294B
:102C700005F108050AD91A1951605C6054680D49BC
:102C800008684668A6420FD310600A600B495B686B
:102C90000A68D21A0A60FFF7A3FD002DD4D0284697
:102CA00070BD1A460B46D5E70146E9E700610020F2
:102CB000844B002004610020F860002040000020C8
:102CC00038B50446C8B1A0F10805FFF7EBFC54F88D
:102CD000041C0A4B1A68506888420CD344F8082C2C
:102CE000074A1D6054F8043C11680B441360BDE8AA
:102CF0003840FFF775BD1346ECE738BD046100208E
:102D00004000002003480068006880F3088862B62D
:102D100000DF00BF08ED00E0DFF80C00016841F4BF
:102D2000700101607047000088ED00E04FF0807393
:102D300040E90213054B40F80C3C6FF0020340F8E9
:102D4000202C40F8243C4438704700BF952D0008E3
:102D5000054B19680868B0E8F04F80F309884FF018
:102D6000000080F311887047804A0020044B4FF028
:102D700080521A60BFF34F8FBFF36F8F704700BF51
:102D800004ED00E0EFF311804FF4A07181F311889E
:102D90007047002008B5054B1B68013302D0FFF7D0
:102DA000F1FFFEE7FFF7EEFFFEE700BF4400002063
:102DB00008B5FFF7E7FF044A136801331360BFF358
:102DC0004F8FBFF36F8F08BD4400002080F3118840
:102DD00070470000034B18680138186008B9FFF706
:102DE000F5BF704744000020EFF30980114B1A68CB
:102DF0001EF0100F08BF20ED108A20E9F04F106080
:102E00004DF8043D4FF4A07080F31188FFF79CFD4E
:102E10004FF0000080F3118808BC19680868B0E81A
:102E2000F04F1EF0100F08BFB0EC108A80F3098835
:102E3000704700BF804A002008B5FFF7A3FFFFF7E7
:102E400039FC18B1044B4FF080521A600020BDE8E5
:102E50000840FFF7BBBF00BF04ED00E0064B4FF496
:102E60007A721B68B3FBF2F3044A013B1360044B14
:102E700007221A60704700BFA000002014E000E0A5
:102E800010E000E013B5234B1A78D2B20192FF2272
:102E90001A701B78204ADBB28DF803309DF803309E
:102EA00003F0400313701D4B07221A6000219DF8A8
:102EB0000300000602F1FF3423D401B11A601A683E
:102EC000120202F4E0621A60019B124ADBB2137034
:102ED000134B1A6842F47C021A601A6842F07C4272
:102EE0001A60FFF7BBFF0F4B00221A60FFF714FFB9
:102EF0000D4A136843F040431360FFF703FFFFF7E9
:102F000049FF9DF803205200D2B28DF80320012121
:102F10002246CCE700E400E00C61002010610020B4
:102F200020ED00E04400002034EF00E008B5EFF3AE
:102F300005830F2B08D90A4A9B5C0A4A12789A42E9
:102F400002D9FFF71FFFFEE7074B084A1B6812680C
:102F500003F4E063934202D9FFF714FFFEE708BDD4
:102F6000F0E300E00C6100200CED00E010610020B7
:102F7000684620F007018D4601B5FEE7684620F05F
:102F800007018D4601B5FEE7684620F007018D4632
:102F900001B5FEE7684620F007018D4601B5FEE762
:102FA000684620F007018D4601B5FEE7684620F02F
:102FB00007018D4601B5FEE7684620F007018D4602
:102FC00001B5BDE80140854670470000684620F025
:102FD00007018D4679B5134A134B14498B4213D31D
:102FE000134B144A0021934213D3134E134CA41BCA
:102FF000A4100025A5420FDB03F074FFFDF788FE47
:10300000BDE879408546704752F8040F43F8040B39
:10301000E4E743F8041BE6E756F825309847013506
:10302000E8E700BF9814010800000020E80800202D
:10303000E80800207C64002088140108941401082A
:10304000684620F007018D4601B5BDE80140854680
:103050007047684620F007018D4601B5BDE8014084
:1030600085467047684620F007018D4601B5BDE8EA
:10307000014085467047684620F007018D4601B53E
:10308000BDE8014085467047684620F007018D463F
:1030900001B5BDE8014085467047684620F007014C
:1030A0008D4601B5BDE8014085467047684620F071
:1030B00007018D4601B5BDE8014085467047684669
:1030C00020F007018D4601B5BDE8014085467047F7
:1030D000684620F007018D4601B5BDE801408546F0
:1030E0007047684620F007018D4601B5BDE80140F4
:1030F00085467047684620F007018D4601B5BDE85A
:10310000014085467047684620F007018D4601B5AD
:10311000BDE8014085467047684620F007018D46AE
:1031200001B5BDE8014085467047684620F00701BB
:103130008D4601B5BDE8014085467047684620F0E0
:1031400007018D4601B5BDE80140854670476846D8
:1031500020F007018D4601B5BDE801408546704766
:10316000684620F007018D4601B5BDE8014085465F
:103170007047684620F007018D4601B5BDE8014063
:1031800085467047684620F007018D4601B5BDE8C9
:10319000014085467047684620F007018D4601B51D
:1031A000BDE8014085467047684620F007018D461E
:1031B00001B5BDE8014085467047684620F007012B
:1031C0008D4601B5BDE8014085467047684620F050
:1031D00007018D4601B5BDE8014085467047684648
:1031E00020F007018D4601B5BDE8014085467047D6
:1031F000684620F007018D4601B5BDE801408546CF
:103200007047684620F007018D4601B5BDE80140D2
:1032100085467047684620F007018D4601B5BDE838
:10322000014085467047684620F007018D4601B58C
:10323000BDE8014085467047684620F007018D468D
:1032400001B5BDE8014085467047684620F007019A
:103250008D4601B5BDE8014085467047684620F0BF
:1032600007018D4601B5BDE80140854670476846B7
:1032700020F007018D4601B5BDE801408546704745
:10328000684620F007018D4601B5BDE8014085463E
:103290007047684620F007018D4601B5BDE8014042
:1032A00085467047684620F007018D4601B5BDE8A8
:1032B000014085467047684620F007018D4601B5FC
:1032C000BDE8014085467047684620F007018D46FD
:1032D00001B5BDE8014085467047684620F007010A
:1032E0008D4601B5BDE8014085467047684620F02F
:1032F00007018D4601B5BDE8014085467047684627
:1033000020F007018D4601B5BDE8014085467047B4
:10331000684620F007018D4601B5BDE801408546AD
:103320007047684620F007018D4601B5BDE80140B1
:1033300085467047684620F007018D4601B5BDE817
:10334000014085467047684620F007018D4601B56B
:10335000BDE8014085467047684620F007018D466C
:1033600001B5BDE8014085467047684620F0070179
:103370008D4601B5BDE8014085467047684620F09E
:1033800007018D4601B5BDE8014085467047684696
:1033900020F007018D4601B5BDE801408546704724
:1033A000684620F007018D4601B5BDE8014085461D
:1033B0007047684620F007018D4601B5BDE8014021
:1033C00085467047684620F007018D4601B5BDE887
:1033D000014085467047684620F007018D4601B5DB
:1033E000BDE8014085467047684620F007018D46DC
:1033F00001B5BDE8014085467047684620F00701E9
:103400008D4601B5BDE8014085467047684620F00D
:1034100007018D4601B5BDE8014085467047684605
:1034200020F007018D4601B5BDE801408546704793
:10343000684620F007018D4601B5BDE8014085468C
:103440007047684620F007018D4601B5BDE8014090
:1034500085467047684620F007018D4601B5BDE8F6
:10346000014085467047684620F007018D4601B54A
:10347000BDE8014085467047684620F007018D464B
:1034800001B5BDE8014085467047684620F0070158
:103490008D4601B5BDE8014085467047684620F07D
:1034A00007018D4601B5BDE8014085467047684675
:1034B00020F007018D4601B5BDE801408546704703
:1034C000684620F007018D4601B5BDE801408546FC
:1034D0007047684620F007018D4601B5BDE8014000
:1034E00085467047684620F007018D4601B5BDE866
:1034F000014085467047684620F007018D4601B5BA
:10350000BDE8014085467047684620F007018D46BA
:1035100001B5BDE8014085467047684620F00701C7
:103520008D4601B5BDE8014085467047684620F0EC
:1035300007018D4601B5BDE80140854670476846E4
:1035400020F007018D4601B5BDE801408546704772
:10355000684620F007018D4601B5BDE8014085466B
:103560007047684620F007018D4601B5BDE801406F
:1035700085467047684620F007018D4601B5BDE8D5
:10358000014085467047684620F007018D4601B529
:10359000BDE8014085467047684620F007018D462A
:1035A00001B5BDE8014085467047684620F0070137
:1035B0008D4601B5BDE8014085467047684620F05C
:1035C00007018D4601B5BDE8014085467047684654
:1035D00020F007018D4601B5BDE8014085467047E2
:1035E000684620F007018D4601B5BDE801408546DB
:1035F0007047684620F007018D4601B5BDE80140DF
:1036000085467047684620F007018D4601B5BDE844
:10361000014085467047684620F007018D4601B598
:10362000BDE8014085467047684620F007018D4699
:1036300001B5BDE8014085467047684620F00701A6
:103640008D4601B5BDE8014085467047684620F0CB
:1036500007018D4601B5BDE80140854670476846C3
:1036600020F007018D4601B5BDE801408546704751
:10367000684620F007018D4601B5BDE8014085464A
:103680007047000070B52D4C88B0204601F0E4FE74
:10369000054600284FD12A4A2A4B2B4E2062C4E906
:1036A00000234FF48043C4E90200C4E90430C4E9B4
:1036B0000600336B43F002033363336B059003F072
:1036C00002030193019B4FF480711223CDE9031390
:1036D00002200423CDE9060303A91C4801F0BCFA2B
:1036E0004FF4007303A91948039301F0B5FA336C42
:1036F00043F400133364336C03F400130293029B0E
:10370000336A43F400133362336A23F400133362E1
:103710002A4605211F2001F069F81F2001F09AF8C0
:103720002A460521202001F061F8202001F092F8BE
:10373000204601F0B9FC08B070BD00BF1461002044
:1037400000540040801A0600003802400004024085
:1037500008B5034801F01DFDBDE80840FFF792BF22
:103760001461002070B503288AB0044625D8214D85
:1037700055F8203005930123CDE906330323089340
:103780001D4B02281A6B23D003282AD0012816D0FB
:1037900042F040021A631B6B03F040030193019B4C
:1037A000164E05A956F8240001F056FA012235F804
:1037B000241056F8240001F041FB0AB070BD42F01D
:1037C00008021A631B6B03F008030293029BE7E7EE
:1037D00042F008021A631B6B03F008030393039B78
:1037E000DEE742F480621A631B6B03F48063049388
:1037F000049BD5E74C000020003802405C0000200C
:10380000032808D8044B33F82010044B002253F847
:10381000200001F013BB70474C0000205C0000202A
:10382000032808D8044B33F82010044B012253F826
:10383000200001F003BB70474C0000205C0000201A
:1038400010B5194B1A6B42F001021A631B6B86B05C
:1038500003F001030093009B69B90123CDE9013115
:1038600002230493114B039153F8200001A901F0A6
:10387000F3F906B010BD0129FBD100240223CDE9E4
:1038800003430B4B0293094B019153F8200001A90C
:1038900001F0E2F922460F21062000F0A7FF0620E2
:1038A00000F0D8FFE5E700BF0038024048000020E4
:1038B0000000111008B5034B012153F8200001F05E
:1038C000B7FA08BD48000020FFF7DCBE10B586B08F
:1038D00006AC012304F8012D6422CDE901320094E5
:1038E0000A460146034801F06BFC08B1FFF730FFC0
:1038F00006B010BD146100207FB506AA002302F8AF
:10390000013D4FF47A7C01230092CDE9013C0A4647
:103910000146054801F0C6FC08B1FFF719FF9DF804
:10392000170007B05DF804FB146100201FB54FF4C9
:103930007A74CDE90134009201230A460146054814
:1039400001F0B0FC044608B1FFF702FF204604B0C6
:1039500010BD00BF1461002000F028BF70B5154BEA
:10396000154C1A6B42F080021A631B6B86B003F091
:10397000800300938025009B1123CDE9015300268D
:10398000032301A92046CDE9036301F065F932461E
:103990002946204601F052FA142000F007FF0122C8
:1039A0002946204601F04AFA0A2000F0FFFE06B040
:1039B00070BD00BF00380240001C0240014B186877
:1039C000704700BF6C000020014B1868704700BFB3
:1039D00070000020014B1860704700BF506100204C
:1039E000012807B503460AD84A780B7808480092A0
:1039F0000021152202F08BFB03B05DF804FB01915E
:103A00000A5C009200213922014802F0ABFBF3E787
:103A1000CC6300201FB5274B5A6C42F080625A6479
:103A20005A6C02F080620192019A5A6A42F08062F6
:103A30005A625A6A22F080625A621A6B42F4000299
:103A40001A631A6B02F400020292029A1A6942F493
:103A500000021A611A6922F400021A615A6C42F0DB
:103A600000625A645A6C02F000620392039A5A6A26
:103A700042F000625A625A6A22F000625A620321DE
:103A80000022582000F0B2FE582000F0E3FE002291
:103A900003215A2000F0AAFE5A2000F0DBFE00228B
:103AA00003215C2000F0A2FE5C2005B05DF804EB71
:103AB00000F0D0BE0038024000B595B04FF48073DE
:103AC0000C934FF08072052306930F92002301227E
:103AD000CDE90323CDE90D330B93CDE911331393D6
:103AE0000093102302934FF48003019205936A46DA
:103AF000034606A9044801F0E9FF003018BF012081
:103B000015B05DF804FB00BF2864002000B595B037
:103B10004FF480730C930623069341F288320023FE
:103B200006A915480F93CDE90D330B93CDE9113359
:103B3000139301F08EFFE0B90223CDE90033012297
:103B40001023CDE902324FF480010523CDE905139E
:103B50004FF0807304900F936A4641F2883306A9B0
:103B6000054801F0B3FF003018BF012015B05DF823
:103B700004FB0120FAE700BF2864002000B591B0E3
:103B80004FF480730893EB2302934FF4406309933F
:103B90004FF4005305934FF040720023CDE90A32F1
:103BA0000A22079202A96A4606480F93CDE90D330F
:103BB000019301F0D7FF003018BF012011B05DF86C
:103BC00004FB00BF28640020F0B52C4B2C4C9A6BF2
:103BD0002C4842F002029A639A6B89B002F002020A
:103BE0000092009A9A6942F002029A619A6922F060
:103BF00002029A611A6B42F002021A631A6B02F017
:103C000002020192019A1A6B42F020021A631B6BA6
:103C100003F0200302934022029B0223CDE90323F9
:103C200001210323CDE905130A2703A9002509264D
:103C3000079701F011F84FF4806303A9204603931E
:103C40000595079601F008F84FF4407303A9204644
:103C50000393079701F000F8C02303A920460393BC
:103C6000079600F0F9FF2A460F215B2000F0BEFD09
:103C70005B2000F0EFFD09B0F0BD00BF003802404E
:103C800000140240000402402DE9F0414A4C4B4B25
:103C9000236090B0204601F0C0FE074620B1012508
:103CA000284610B0BDE8F08101462046FFF78CFFA2
:103CB00001251023C4E90155E3604FF0807696FAA0
:103CC000A6F3B3FA83F3DBB2013B4FF480782046CE
:103CD0002361C4E90587C4E9077701F047FE00289E
:103CE000DDD16623CDE909000B900790CDE90D00E9
:103CF0000F9041F2883202A92046CDF8208002932D
:103D000001F0A7FE08B10425CAE7992341F28832E1
:103D100002A92046029301F09CFE0028F3D141F253
:103D20008830FFF7C9FE0028EDD18523CDE90900D1
:103D30000790CDE90C50CDE90E0041F2883202A97E
:103D40002046CDF8208002930B9601F082FE0028D9
:103D5000D9D141F288320DF10701204601F0ABFFC5
:103D60000028D0D1FFF7D2FE05460028CBD1812311
:103D70000293F02393FAA3F3B3FA83F39DF8072099
:103D80000A21DBB202F00F0201FA03F3134302A986
:103D900041F2883220468DF8073001F05AFE0028A3
:103DA000B1D141F288320DF10701204601F031FF17
:103DB00000283FF475AFA6E728640020001000A09B
:103DC0002DE9F743214C224D01264FF00008102722
:103DD000214681464FF6FF722846CDF80480C4E99B
:103DE0000067C4E9026802F0BAFF304600F0DEFC6A
:103DF000022321464FF6FF722846C4E90037C4E982
:103E0000026802F0ACFF0323C4E90037214608230F
:103E10004FF6FF722846C4E9023802F0A0FF4FF4C3
:103E20000C7301930423C4E900372146019BA6606B
:103E30004FF6FF722846E36002F091FF494628469C
:103E400003B0BDE8F04302F0A1BF00BF5461002001
:103E5000D861002070B506468EB0002800F0B6800C
:103E60005B4B5C489A6B42F001029A639A6B02F0DA
:103E700001020092009A1A6B42F480021A631A6BD4
:103E800002F480020192019A1A6B42F004021A6352
:103E90001A6B02F004020292029A1A6B42F00802B4
:103EA0001A631A6B02F008020392039A1A6B42F02B
:103EB00010021A631A6B02F010020492049A1A6B31
:103EC00042F020021A631A6B02F020020592059A52
:103ED0001A6B42F040021A631A6B02F0400206921B
:103EE000069A1A6B42F080021A631A6B02F0800283
:103EF0000792079A1A6B42F480721A631B6B03F4E1
:103F000080730EAC0893089B012344F8143D0222F1
:103F1000CDE90A2321460C920C220D9200F09CFE62
:103F20004CF2037321462C48099300F095FE4FF69E
:103F3000837321462948099300F08EFE4FF63F0314
:103F400021462748099300F087FE48F233132146A3
:103F50002448099300F080FE4FF60C732146224856
:103F6000099300F079FE40F2FF6321461F48204C80
:103F70000993002500F070FE80234FF40072C4E91D
:103F800001534FF48063C4E903234FF480514FF48D
:103F90008043C4E905134FF40033C4E90835032313
:103FA000C4E90A352563134B346320462360E56179
:103FB000A66300F0D5FC204600F092FC38202A468B
:103FC000052100F013FC382000F044FC0EB070BD59
:103FD0000038024000080240000C0240001002407D
:103FE0000014024000180240001C02400020024061
:103FF000806100201064024038B51A4C1A4D1B4BEA
:104000002360072202230421C5E90032C5E9021218
:10401000C5E904332022AB6140230021C4E9042315
:104020004FF4C073C4E906314FF400604FF480537D
:10403000C4E908032046C4E90111E160A162FFF769
:1040400009FF2046294602F06AFE094C38B10123D7
:10405000237040F26950FFF7B3FE207838BD20701E
:10406000F7E700BFD861002064610020400100A094
:1040700074000020F8B5114C114D236807462878CC
:104080000E469847636854209847112813D10D4B6A
:104090005422B7421C601E460B4B2A7034BF0122CB
:1040A0000C221A705420A368984733682878DB687C
:1040B00098470020F8BD0320FCE700BF78000020EF
:1040C0000C62002020620020246200202DE9F74FBE
:1040D000374E384D336807461B6928789847387043
:1040E00048B1DFF8D4A0DFF8D49007F1020800242B
:1040F0003B78A34203D8002003B0BDE8F08F3368BB
:1041000028785B690DF1040B61000BEB0102694437
:1041100098479AF80020DFF8A8E0100741BF3BF865
:1041200014103DF814302DF814102BF814309107AA
:1041300041BF3DF81430C3F5477303332DF81430F5
:10414000530748BF3BF8143059F824203DF814C0F9
:1041500044BFC3F5EF7301334FEA840148BF2BF826
:1041600014303BF8140051F80EB093B2944588BF58
:10417000ACEB03031FFA8BF298BFA3EB0C0358457B
:104180008CBF821A121A9BB292B21344052BC8BF7D
:1041900049F801C059F80130C8BF4EF8010028F8AD
:1041A000023B5EF80130A8F802300134A0E700BFFE
:1041B000206200200C620020246200201062002097
:1041C0001862002070470020704710B50446FFF7C2
:1041D0007BFBA821E0B2FFF78FFB10BD13B50024D5
:1041E0000221C0B28DF80740FFF786FB8DF807006B
:1041F0009DF8073003F00F038DF807309DF8073066
:10420000022B88BF8DF80740044B9DF807209DF8CE
:1042100007005A7000229A7002B010BD2762002079
:1042200073B5154C1546A37862789A420E461FD98D
:1042300003B3012B0CBF0921002104230DEB030262
:10424000C0B2FFF773FB9DF804309DF805201B02F8
:1042500003F47063134333809DF806309DF8072004
:104260001B0203F4706313432B80A3780133A37004
:1042700002B070BD0321E0E7276200200122A421E3
:10428000C0B2FFF723BB0022A421C0B2FFF71EBBC0
:10429000FFF7F9BF70470000064A1378984208D02C
:1042A0005178884205D00BB119B90123D054FFF7DA
:1042B0000BBB70472562002038B504460D46002030
:1042C000CB49FFF78DFBCB490320FFF789FBCA4998
:1042D0000020FFF785FBC9490220FFF781FBC64993
:1042E0000020FFF77DFBC6490020FFF779FB0A207D
:1042F000FFF732FBC3490020FFF772FBC2490020E1
:10430000FFF76EFB0A20FFF727FBC0490020FFF7ED
:1043100067FBBF490020FFF763FBBE490020FFF7A2
:104320005FFBBD490020FFF75BFBBC490020FFF7A6
:1043300057FBBB490020FFF753FBAD490020FFF7B7
:104340004FFBB8490020FFF74BFBB7490020FFF7B0
:1043500047FBB6490020FFF743FBB5490020FFF7B4
:104360003FFBB4490020FFF73BFBB3490020FFF7B8
:1043700037FBB2490020FFF733FBB1490020FFF7BC
:104380002FFBA5490020FFF72BFB99490020FFF7E1
:1043900027FBAC490220FFF723FBAB490020FFF7C6
:1043A0001FFBAA490020FFF71BFBA9490020FFF7CC
:1043B00017FBA8490020FFF713FBA7490020FFF7D0
:1043C0000FFBA6490020FFF70BFB97490020FFF7E2
:1043D00007FBA3490020FFF703FB95490020FFF7E7
:1043E000FFFAA0490020FFF7FBFA9F490020FFF7E2
:1043F000F7FA9E490220FFF7F3FA7F490020FFF702
:10440000EFFA9B490620FFF7EBFA9A490020FFF7E5
:10441000E7FA99490E20FFF7E3FA98490020FFF7E1
:10442000DFFA97490E20FFF7DBFA96490020FFF7E5
:10443000D7FA95490A20FFF7D3FA94490020FFF7ED
:10444000CFFA93490020FFF7CBFA6B490020FFF722
:10445000C7FA90490A20FFF7C3FA8F490020FFF7F7
:10446000BFFA8E490F20FFF7BBFA82490020FFF701
:10447000B7FA8B490F20FFF7B3FA80490020FFF706
:10448000AFFA88490A20FFF7ABFA7E490020FFF710
:10449000A7FA85490F20FFF7A3FA7C490020FFF710
:1044A0009FFA82490F20FFF79BFA81490020FFF70E
:1044B00097FA80490A20FFF793FA7F490020FFF717
:1044C0008FFA7E490A20FFF78BFA4B490020FFF74D
:1044D00087FA7B490A20FFF783FA6F490020FFF72C
:1044E0007FFA78490F20FFF77BFA62490020FFF737
:1044F00077FA75490F20FFF773FA60490020FFF73C
:104500006FFA72490A20FFF76BFA5E490020FFF745
:1045100067FA6F490F20FFF763FA5C490020FFF745
:104520005FFA6C490F20FFF75BFA3F490020FFF765
:1045300057FA69490020FFF753FA68490020FFF74E
:104540004FFA67490020FFF74BFA29490020FFF78F
:1045500047FA64490320FFF743FA25490020FFF793
:104560003FFA23490020FFF73BFA5F491020FFF78D
:1045700037FA1F490020FFF733FA5C491020FFF794
:104580002FFA00205A49FFF72BFA7820FFF7E4F9B9
:10459000002C00F0C780022C03D156490020FFF701
:1045A0001FFA012D0BD154490020FFF719FA534986
:1045B0000420FFF715FA52490420FFF711FA514978
:1045C0000020FFF70DFA50490020FFF709FA4F4984
:1045D0000020FFF705FA4E490020FFF701FA4D4988
:1045E0000020FFF7FDF902490020FFF7F9F993E0F9
:1045F00099F00008FBF00008AFF0000881F1000816
:10460000C5F00008DBF00008F1F00008F3F0000846
:10461000F5F00008F7F00008F9F000089BF000083A
:104620009DF000089FF00008A1F00008A3F000082A
:10463000A5F00008A7F00008A9F00008ABF00008FA
:10464000ADF00008FFF10008B1F00008B3F0000879
:10465000B5F00008B7F00008B9F00008BBF000089A
:10466000BDF00008BFF00008C1F0000802F2000829
:1046700005F20008C3F000080CF20008C7F00008BB
:104680001BF20008C9F00008FFF00008CBF000089A
:10469000E9F000080AF10008CDF0000815F1000863
:1046A00025F1000835F1000840F1000850F100083C
:1046B000CFF0000860F10008D1F000086BF10008AD
:1046C00076F1000884F1000894F10008A4F10008D4
:1046D000AFF10008BFF10008EBF00008EDF00008B2
:1046E000EFF00008CFF10008DDF10008EEF100085E
:1046F000D3F00008D5F00008D9F00008D3F1000885
:10470000D8F10008DDF00008DFF00008E1F0000853
:10471000E3F00008E5F0000804490020FFF760F925
:10472000002038BD0249204639E700BFE7F0000805
:10473000D7F00008704710B5044601F0EDFE4FF4C5
:104740007A73B0FBF3F000F09FF8002221464FF09F
:10475000FF3000F04BF8002010BD000008B50B4BF7
:104760001A6842F400721A601A6842F480621A6091
:104770001A6842F480721A60032000F025F80120C4
:10478000FFF7D9FFFFF7D6FF002008BD003C02402D
:10479000024A136801331360704700BF2C62002087
:1047A000014B1868704700BF2C62002013B50190C0
:1047B000FFF7F6FF0446FFF7F3FF019B001B98424B
:1047C000F9D302B010BD0000074AD36823F4E063B8
:1047D0001B041B0C43F0BF63000243F4003300F4DE
:1047E000E0600343D360704700ED00E070B5174B05
:1047F000DC68C4F30224C4F10705042D04F10403AA
:1048000028BF04254FF0FF36062B06FA05F38CBFB0
:10481000033C002421EA0303A34006FA04F422EA3D
:104820000404002843EA0403A8BF00F160404FEAF3
:104830000313BCBF00F00F00054ADBB2AABF00F5AE
:104840006140135480F8003370BD00BF00ED00E0FC
:1048500014ED00E04209012300F01F0003FA00F00C
:10486000014B43F82200704700E100E043090122B8
:1048700000F01F0002FA00F02033024A42F8230041
:10488000704700BF00E100E00138B0F1807F0AD23C
:10489000064B074A5860F02182F8231000200722B7
:1048A00098601A6070470120704700BF10E000E078
:1048B00000ED00E00368DAB223F47F7323F0030312
:1048C0001821103AB2FBF1F20449032A88BF0433DD
:1048D000895C03654165006D704700BF2AF20008DE
:1048E00038B50446002836D0022380F83530416AB6
:1048F00000681A4D03681D40D4E901231343E268A0
:1049000013432269134362691343A2691343E269A3
:104910001343226A042943EA020308BFD4E90B21A6
:1049200043EA050304BF0A43134303602268616A34
:104930005369042923F0070343EA010304BFA16A72
:104940000B4353612046FFF7B5FF00200123E064CD
:1049500084F8353038BD0120FCE700BF3F8010F0FF
:1049600038B5054618B390F83530022B1FD00268D1
:10497000136823F001031360036800241C600368BC
:104980005C6003689C600368DC6003681C6103680A
:1049900021225A61FFF78EFF6A6D3F2393408360A7
:1049A000EC6485F8344085F83540204638BD012058
:1049B000FCE770B5049C056844EA03436B64036834
:1049C000DA6343680268B3F5403F30D186681EB1B0
:1049D000012E03D121F07F41916370BD022E01F4BD
:1049E0007F0301F47F45CCB207D1D90CAD0AC902CF
:1049F00041EA451141EAD401EEE7032E01F07F4080
:104A00000AD1DB0CED0A9B0243EA451343EAD403C7
:104A1000C10F43EAC131DFE7190D2D0B090241EA4D
:104A2000051141EA1411030F41EA0331D4E7D160C3
:104A3000D3E7704710B5044640B390F8393003F01F
:104A4000FF021BB980F83820FFF7F3FF2268616886
:104A5000022384F83930136823F440330B43136086
:104A60002268A168536B23F007030B43536322684A
:104A7000E168136C23F47F5323F03F030B4313646B
:104A800000200123E06384F8393010BD0120FCE7E9
:104A9000704710B5044640B1FFF7FAFF0020E0630D
:104AA00084F8380084F8390010BD0120FCE773B5A4
:104AB00090F83850012D04464FF0020524D001260D
:104AC00080F83860066880F83950356825F00105AF
:104AD0003560069D0095FFF76CFF2268136843F46C
:104AE000007313602268136843F4807313602268B4
:104AF000136843F0010313602268136843F4005302
:104B00001360002002B070BD2846FBE773B516465F
:104B10001A4690F83830012B04464FF0020327D094
:104B2000012580F83850056880F839302B6823F06B
:104B300001032B6003685E61079B0093069BFFF7F0
:104B400038FF2268136843F4005313602268136827
:104B500043F4007313602268136843F48073136096
:104B60002268136843F001031360002002B070BD97
:104B70001846FBE7F0B590F83830012B4FF00203F0
:104B800032D0012280F8382080F839300468314E64
:104B900061BBD0E90753616A426A3140A5F1090659
:104BA000012E4FEA03439ABF02F07F42134343EAC8
:104BB00002632B430B43636202688169936923F4A8
:104BC0007F5323F03F030B439361C369093B012BE0
:104BD00004D8436A026823F07F439362012380F87C
:104BE0003930002380F838301846F0BD0D014719E0
:104BF000E369D7F81CC01E40ACF10903012B1FD894
:104C0000D7E9083202F07F4242EA034242EA0C024C
:104C10001643E661046842192369956923F47F53BA
:104C200023F03F032B432361D369093B012BD5D8E4
:104C300000EB011102684B6A23F07F431362CDE75A
:104C4000D7E908231B0643EA024343EA0C031E4349
:104C5000DFE700BFF0FFFC002DE9F74FDFF8C4C12C
:104C60006D4ADFF8C4B1DFF8C4A100234FF0010E94
:104C70000C680EFA03FE0EEA0404A64540F0B2806A
:104C80004D6825F01005022D14D14FEAD30800EB32
:104C9000880803F00709D8F820504FEA89090F2641
:104CA00006FA09F625EA06060D6905FA09F53543FF
:104CB000C8F820504FEA43084D6806684FF00309D2
:104CC00009FA08F96FEA090905F0030509EA060679
:104CD00005FA08F5354305604E6826F01006013EDA
:104CE000012E11D88568CE6809EA050506FA08F68E
:104CF0002E438660456825EA0E0E4D68C5F3001503
:104D00009D4045EA0E054560C56809EA05098D68BC
:104D100005FA08F545EA0905C5604D68ED0061D55D
:104D20003E4E756C45F480457564756C23F0030642
:104D300006F1804605F4804506F59C36019503F0A2
:104D4000030E019DD6F808904FF00F084FEA8E0E23
:104D500008FA0EF529EA0508314DA84249D005F5B3
:104D60008065A84247D005F58065A84245D05845E2
:104D700045D0504545D0604545D005F58055A84201
:104D800043D005F58065A84241D005F58065A8426D
:104D90003FD005F58065A8420CBF09250A2505FA14
:104DA0000EF545EA0805B5604F681568E643FF0350
:104DB0004CBF2543354015604F685568BF034CBF55
:104DC0002543354055604F689568FF024CBF254329
:104DD000354095604F68D568BF0254BF06EA0504A8
:104DE0002C43D4600133102B7FF440AF03B0BDE8F7
:104DF000F08F0025D3E70125D1E70225CFE7032572
:104E0000CDE70425CBE70525C9E70625C7E7072534
:104E1000C5E70825C3E700BF003C01400038024059
:104E20000000024000140240000C0240001002404A
:104E30000369194214BF0120002070470AB1816143
:104E400070470904FBE7F8B50D4604461646FFF720
:104E5000A7FCADB207462368586935EA000012D0B6
:104E60005A69510510D51A6842F400721A60236815
:104E70006FF480625A610423A3630120002384F845
:104E8000350084F83430F8BD721CE5D03EB90123FA
:104E900084F83530002384F834300320F3E7FFF73B
:104EA0007FFCC01BB042D6D9F1E72DE9F8430C4690
:104EB000054691469846FFF773FC260C0746A4B2B8
:104EC000B9F1000F29D02968012E0CBF4B698B69FD
:104ED00034EA03030CBF0122002252B3B8F1FF3FB2
:104EE000F2D0B8F1000F10D0FFF75AFCC01B4045BC
:104EF000E9D90AE0B8F1FF3F10D0B8F1000F04D0B3
:104F0000FFF74EFCC01B404507D9012385F835301B
:104F1000002385F8343003200CE02968012E0CBFF3
:104F20004B698B6934EA030314BF01220022002A73
:104F3000E0D10020BDE8F883F7B5154602681F46AA
:104F4000136843F4807313600E46089B00224FF0F1
:104F500001110446FFF7A9FF68B92368089A1849A8
:104F600006F0FE061E612046FFF76DFF024628B1DF
:104F7000A36B042B21D0032003B0F0BD2368596933
:104F800001919B690193019B0E49089B2046FFF705
:104F90008CFF0028EFD1012F236802D1EDB21D61F3
:104FA000EAE72A0A1A610749089B02462046FFF7EA
:104FB0007CFF0028DFD12368F0E70120DCE700BF99
:104FC0000200010080000100F7B5154602681F4687
:104FD000136843F4806313600268136843F48073BA
:104FE00013600E46089B00224FF001110446FFF7A4
:104FF0005CFF88B923682949F6B206F0FE021A61FF
:105000002046089AFFF71FFF024638B1A36B042B16
:1050100002D1012003B0F0BD0320FBE723685969EA
:1050200001919B690193019B1D49089B2046FFF755
:105030003CFF02460028EFD1012F236823D1EDB2B7
:105040001D610022089B16492046FFF72EFF0246ED
:105050000028E1D121680B6843F480730B6020467F
:10506000089B4FF00111FFF720FF0028D4D12368DF
:10507000089A0A4946F001061E612046FFF7E3FE42
:105080000028C3D1C6E7290A19612046089B0449B4
:10509000FFF70BFF0028BFD12368D0E70200010013
:1050A000800001007047000010B50446002868D059
:1050B00090F8353003F0FF021BB980F83420FFF779
:1050C000F1FF2268022384F83530136823F00103CE
:1050D000136001F03DFA23682B4AB0FBF2F25A60EC
:1050E00061682A4B994285BF4FF496735343531C12
:1050F0004FF47A7288BFB3FBF2F3226888BF0133A2
:1051000013626368214A934223D85B00B0FBF3F03B
:10511000C0F30B03032B98BF04202368D861D4E9A4
:10512000073122680B431360D4E9031322680B4351
:105130009360D4E9053122680B43D3602268136879
:1051400043F00103136000200123A06384F835308D
:1051500010BDA2684AB903EB4303B0FBF3F0C0F300
:105160000B0363B140F40040D7E719225343B0FB6F
:10517000F3F0C0F30B0313B140F44040CDE701203E
:10518000CBE70120E4E700BF40420F00A08601000A
:10519000704710B5044680B10268022380F83530AC
:1051A000136823F001031360FFF7F2FF0020A063F0
:1051B00084F8340084F8350010BD0120FCE70000BD
:1051C0002DE9F74F90F835400C9FBDF83460E4B2FC
:1051D000012C0546894692469B4603D0022003B027
:1051E000BDE8F08F87B37EB342F2107322462B499D
:1051F000FFF75BFE80460028F0D195F83430012B94
:10520000ECD02A6885F83440136823F400631360F7
:10521000322385F835300E9BA863009352465B46D7
:1052200049462846FFF788FE48B91D4C0E9B0022D0
:1052300021462846FFF739FE40B10320CFE7AB6B8C
:1052400085F83480042BF8D12046C8E72B683A78DB
:105250001A612A685169731E49079BB216D4013737
:105260001E46002EE2D10E9B0D4900222846FFF774
:105270001CFE0028E1D12A68136843F40073136010
:10528000012385F8353085F83400A8E7002BEAD0F3
:105290007B781361023EB6B20237E2E702001000EB
:1052A000800001002DE9F04F90F8357089B0FFB211
:1052B000012F0446039192469B46129DBDF84C6017
:1052C000DDF8508005D04FF0020A504609B0BDE825
:1052D000F08F3DB336B342F210733A465B49FFF7A5
:1052E000E4FD81460028EED194F83430012BEAD059
:1052F000226884F834701368039923F40063136000
:10530000422384F835305246A063CDF800805B46D6
:105310002046FFF759FE824630B1A36B84F83490E3
:10532000042B1FD1BA46D0E7012E23681DD11A687D
:1053300022F480621A6023685A6905929A6905927C
:10534000059A1A6842F400721A60414F032E4346D0
:105350004FF0000262D8012E2CD13D492046FFF7C4
:10536000A4FDE8B14FF0030AAFE7022E0FD11A688F
:1053700022F480621A602268136843F400631360A9
:1053800023685A6906929B690693069BDDE75A6972
:1053900007929B690793079BD7E71E461546D5E7FB
:1053A00023681B692B70012384F83530002384F8AF
:1053B00034308AE7022E274920460FD1FFF775FDCA
:1053C0000028CFD12268136843F400731360236868
:1053D0001B692B7023681B696B70E4E7FFF765FDA1
:1053E00002460028BED121680B6823F480630B605D
:1053F000236818491B692B7020464346FFF755FD6B
:105400000028AFD12268136843F400731360236847
:105410001B696B7023681B69AB70C4E73946204673
:10542000FFF743FD00289DD123682A461B6902F837
:10543000013B21684869731E40079BB2ADD50B69DB
:105440006B70023EB6B2023580E700BF020010006A
:10545000400001000400010090F835007047F0B5ED
:1054600005684C68EB68D20184321544C3F30B43E2
:105470001C446B6803F470436B6005680E68EB684E
:105480000136C3F30B431544334443EA04436B60D2
:105490000568CC68EB68C3F30A031C44AB189D682D
:1054A00005F470459D6005688B68EE680133C6F3AE
:1054B0000A061544334443EA0443AB6003681344CB
:1054C00000251C6924F007041C6103680C6913445F
:1054D0001C61046891F8326091F83170D1F818C0FD
:1054E0001444A369A561046891F8303043EA0C6361
:1054F000144443EA072343EA0643A36103681344C1
:105500005C6924F0FF045C6103684C6913445C61CE
:1055100004681444E36923F4E06323F00703E361C0
:105520000368D1E9074613443443DC61036813443C
:105530009C6A9D6203684C6A13449C620B6963B366
:10554000012B2CD09C1E022C2BD9072B14BF01241D
:10555000022403681344DD6A05F0E025DD62036878
:105560009D18D1E900639B1B8E6A63430333744328
:1055700043EA0443EB6204681444236B23F4FF639F
:1055800023F0070323630368C96A1344196301689E
:105590008B5843F001038B50F0BD0424D9E703245A
:1055A000D7E70224D5E7704738B50446002875D000
:1055B00090F8A13003F0FF021BB980F8A020FFF79C
:1055C000F2FF2268022384F8A130936923F070432C
:1055D0009361D4E901300343E06822680343206902
:1055E000916903430B43936121682D4A8B681340F3
:1055F0008B60216860698B6843EA0043A0690343BC
:105600008B602168CB681340CB602168E069CB6870
:1056100043EA0043206A0343CB6021680B691340CF
:105620000B6121680B69606A43EA0043A06A034387
:105630000B6121684B691A404A612268E16A53692B
:1056400043EA0143216B0B435361216894F8360010
:10565000CA6A94F8355002F07F42CA62226894F810
:105660003430D16A0B4343EA052343EA0043D36253
:105670002268536B43F0040353632268536B43F077
:10568000020353632268936943F00103936100208E
:105690000123C4F8A40084F8A13038BD0120FCE740
:1056A00000F800F0704710B50446FFF7FBFF00203C
:1056B000C4F8A40084F8A00084F8A10010BDF8B5D7
:1056C00090F8A030012B06468C4696464FF002001B
:1056D0001DD0012786F8A07086F8A10034240D465D
:1056E00004FB02640FCD38340FC40FCD0FC40FCDAF
:1056F0000FC42B682360304672466146FFF7AFFE49
:10570000336800205F6286F8A17086F8A000F8BDBB
:1057100030B590F8A030012B4FF0020331D00124B6
:1057200080F8A040342404FB020480F8A130A46C6B
:105730004CB3012C29D0A51E9D4202D9072C18BFBD
:1057400001230568D201843215445943EC6A24F0E0
:10575000FF5424F4F814EC620D4C656A45F0010521
:10576000656205682A44D56A45EA0141D162636AE7
:1057700043F001036362012380F8A130002380F825
:10578000A030184630BD0423DBE70323D9E700BF70
:10579000006801404B6A2DE9F0473BB1B2F1406F20
:1057A0001FBF8B6A046803F1FF3323618B690C6AA6
:1057B000002B67D00568002C35D08B68EB61CC6975
:1057C0004B6A05688F69D1F820C0D1F83480D1F8D0
:1057D00010E00E68D1E90BA9A4B144EA0A0414430D
:1057E00044EA090444EA0804234343EA0E03CC686C
:1057F00043EA0C0323433B434C69334343EA84436A
:105800006B612AE04AEA0904144344EA080423438A
:1058100043EA0E0343EA0C033B4333434E6943EA36
:1058200086466E612CE04E69CC69D1F80090D1F8C3
:1058300024804F6BD1E90BECB604ACB11C4314438C
:1058400044EA090444EA080444EA0E04CB6844EA42
:105850000C043C431C4334436C61B2F1406F0FD0E5
:1058600003684A689A610BE043EA0903134343EA79
:10587000080343EA0E0343EA0C033B4333436B61E3
:10588000BDE8F08744B303688C68DC61CC69D1F86B
:10589000248005688E69D1F820C04B6BD1F810E0E8
:1058A000D1E90B796CB13C43144344EA0904234326
:1058B00043EA080343EA0E03CC6843EA0C0323439C
:1058C0009AE747EA09042243134343EA080343EAF9
:1058D0000E0343EA0C03A0E7CD694B6A7DB12B436D
:1058E000CD6A046813432B430D6B2B434D6B2B4345
:1058F000CD682B434D6943EA85436361ADE7002BD7
:10590000BED0CC6A0068234313430A6B13434A6B2F
:1059100013434A6943EA82434361B1E72DE9F04109
:1059200004460F4616461D46FEF73AFF804622689B
:1059300093683B4214BF01230023B34201D10020EE
:105940000AE06B1CF4D04DB9042384F83930E36BC2
:1059500043F00103E3630320BDE8F081FEF720FF7D
:10596000A0EB0800A842E2D9EEE7704738B504463C
:1059700000284BD090F83830012B49D0012380F813
:10598000383090F8393003F0FF0233B980F838200E
:10599000FFF7EBFF41F2883323642168A2680B68AC
:1059A000013A23F4706343EA02230B60236C002264
:1059B00020212046FFF7B2FF20BBE569E36821689C
:1059C0002B43256A0A682B43656822F07F4243EA2D
:1059D000056322F0D00213430B60D4E9053221683D
:1059E000134322694D6843EA02430A4A2A4013439B
:1059F0004B602268136843F0010313600123E063E6
:105A000084F83930002384F8383038BD0120FCE7B1
:105A10000220FAE7FEF8E0FF704710B50446A0B197
:105A200090F83830012B12D00268012380F838300A
:105A3000136823F001031360FFF7EEFF0020E0631B
:105A400084F8390084F8380010BD0120FCE70220FA
:105A5000FAE72DE9F84390F83830012B04468946DF
:105A6000904631D0012380F8383090F83960F6B292
:105A70009E424FF0020723D10022C263434680F8C2
:105A800039702021FFF74AFF054698B9024649467A
:105A90002046FFF77FFED9F824304BB94346324603
:105AA00039462046FFF73AFF054658B92368DF60BC
:105AB00084F83960002384F838302846BDE8F8833C
:105AC0003D46F7E70325F5E70225F6E72DE9F04126
:105AD000164690F83820012A04460F4698463FD0D3
